:1000000042C0DFC05BC05AC059C058C057C056C0BC
:1000100055C054C053C052C051C050C04FC04EC054
:100020004DC04CC04BC04AC049C048C047C046C084
:1000300045C044C0090212000101008019090400F2
:1000400000000000000012011001FF000008C016AF
:10005000DC050401010200010E03550053004200BB
:100060006100730070001C037700770077002E009A
:10007000660069007300630068006C002E00640075
:1000800065000403090411241FBECFEFD4E0DEBFD6
:10009000CDBF11E0A0E0B1E0EEE6F6E102C00590D0
:1000A0000D92A430B107D9F721E0A4E0B1E001C07E
:1000B0001D92A035B207E1F738D9D7CAA1CF259A4A
:1000C00023982B9A50E217D05A95E9F70895AC017E
:1000D00088E605D0842F03D089E601D0852F0FD084
:1000E00028E030E0382780FB869506D02A95D1F7A6
:1000F00030FB02D000D0689423982B9A16F02B98EE
:10010000239AE0912401F09125013197F0F72D9A7F
:10011000E3B1E3FBE0912401F09125013197F0F781
:100120002D98089520ECE7DF46F42A95E1F780E06A
:100130002AE1E5DF2A95E9F7DECF28E030E0DBDFD2
:10014000869587F938272A95D1F7D5DF27F9322701
:1001500072F3D1DFD0CFDB01742FB9DF84E2BFDFD0
:10016000E1DF8D937A95D1F70895DB01742FAFDF2E
:1001700083EFB5DF8DE1B3DF84E6B1DF8D91AFDFD3
:1001800082E7ADDFCFDF8078D9F77A9589F70895D8
:10019000A82FB92F80E090E041E050EA609530E070
:1001A00009C02D9182279795879510F08427952770
:1001B000305EC8F36F5FA8F30895EADF8D939D93D7
:1001C0000895CF93CFB7CF93C395189BE9F7189BAA
:1001D00009C0189B07C0189B05C0189B03C0189B3B
:1001E00001C0A1C0DF93C0913301DD27C65CDE4FA3
:1001F000189B02C0DF91EBCF2F930F931F9303B196
:100200002FEF00FB20F94F933F9313B14FEF0127DE
:1002100000FB21F93BE031C04E7F012F13B121607B
:1002200028C0102F4D7F2260000003B129C04B7FF2
:100230002460012F000013B12BC013B1477F286049
:100240002AC04F7E03B120612CC04F7D13B12062C4
:100250002FC04F7B03B1206432C0422703B14993C2
:100260004FEF0000102710FB20F913B11370C9F1F4
:10027000297F91F2012700FB21F903B1237F89F245
:10028000315058F1102710FB22F913B1277E79F273
:10029000012700FB23F92F7C81F203B1102710FB0B
:1002A00024F92F7971F200C013B1012700FB25F961
:1002B0002F7359F200C003B1102710FB26F922302A
:1002C00040F200C013B1012700FB27F9243028F6C3
:1002D0004F77206813B10000F9CF11E01CBB002755
:1002E00017C03B503195C31BD04011E01CBB0881A7
:1002F000033CE9F00B34D9F0209131011981110F41
:100300001213EDCF093641F10D3211F0013E39F7EC
:10031000009338013F914F911F910F912F91DF91E1
:10032000CCB3C0FD51CFCF91CFBFCF9118952091C5
:100330003801222379F310913601112311F534305D
:1003400012F13093360120933201109133013BE0DA
:10035000311B3093330117C00091360101308CF40A
:100360000AE53091010134FD10C000930101C6E29D
:10037000D1E00FC02795A8F45150A9F4220F000036
:10038000F9CF4AE503C042ED01C0432FC4E1D0E0FC
:1003900032E014B11360289A14B905B120E413E0D7
:1003A0005F93012756E005B9279520F4515021F4B9
:1003B000220FF9CF012756E000003B5A05B9D0F2D1
:1003C000279528F4515029F4220F0000F9CF012776
:1003D00056E0279505B920F4515021F4220FF9CFAA
:1003E000012756E02991332305B921F60C7F10919E
:1003F0003701110FC651D04005B911F010933101EA
:1004000011E01CBB016014B11C7F402F4C7F5F9139
:1004100000C000C005B914B945B97CCF90E006C052
:1004200036B526B5231B2C33E0F39F5F9813F8CF26
:1004300008952C982B98249823980895249A80E165
:100440008A95F1F700C00895239A80E18A95F1F723
:1004500000C0249880E18A95F1F700C0239880E1DC
:100460008A95F1F700C0249A80E18A95F1F700C0DF
:100470000895239A249A80E18A95F1F700C0239881
:1004800080E18A95F1F700C0249880E18A95F1F720
:1004900000C0089598E0239A87FF02C0249801C005
:1004A000249A20E12A95F1F700C0239820E12A95AB
:1004B000F1F700C0880F915071F7239A249880E1DA
:1004C0008A95F1F700C0239820E12A95F1F700C042
:1004D00083B18295817091E089270895282F239A0E
:1004E000249830E13A95F1F700C0239880E18A958D
:1004F000F1F700C083B18295817097E0239A30E1D3
:100500003A95F1F700C0239830E13A95F1F700C031
:10051000880F1C998160915089F7239A211102C09C
:10052000249A01C0249890E19A95F1F700C023988D
:1005300030E13A95F1F700C00895613011F481601F
:1005400001C08E7FA7CF8EBD0DB407FEFDCF8EB547
:10055000089521E196958795779567952A95D1F726
:10056000209122012617D9F060932201E0911E010B
:10057000F0911F018DE40995E0911E01F0911F019A
:1005800080E00995E0911E01F0911F018091220108
:100590000995E0911E01F0911F0180E009940895F2
:1005A000809121018CBD809120018DBD089588230B
:1005B00019F0883098F101C08AE023EA32E03093E4
:1005C0001F0120931E011092200191E090932301BE
:1005D0008B30A9F028F48830E9F0893091F418C004
:1005E0008D3049F050F08E3061F480E58093210128
:1005F00090932001089580E50EC09093200181E53D
:100600000AC082E58093210181E080932001089552
:1006100082E501C083E580932101089527E333E05B
:1006200030931F0120931E01843079F028F482302A
:1006300081F0833081F40BC0863071F020F0873078
:1006400051F483E009C08CE007C088E105C080E375
:1006500003C080E601C080EC80932301089526B595
:100660009091230186B5821B8917E0F308950F93BB
:100670001F93CF93DF931F92CDB7DEB708E010E052
:1006800087FF02C02B9A01C02B98880F110F1C996D
:100690001F5F2D9A8983E3DF2D98E1DF0150898167
:1006A0000111EECF812F0F90DF91CF911F910F910C
:1006B000089584B18C6284B92A982D98D0DF2A9A43
:1006C000CEDF2A9880911E0190911F01835A92409B
:1006D00009F466DF10922201089584B18C6284B916
:1006E00080911E0190911F01835A924009F458DFB6
:1006F0002A9A089584B1837D84B985B1837D85B9B3
:100700001CBC0895CF93DF93C1E229C0E0911E0184
:10071000F0911F018CEA0995E0911E01F0911F01F3
:1007200083E50995E0911E01F0911F0180E0099594
:10073000D82FE0911E01F0911F0180E00995D3357B
:1007400091F01CBC8CDF2A9A8ADF2A9888DF80917E
:100750001E0190911F01835A924009F421DFC1507C
:10076000A9F681E001C080E0DF91CF910895CF929A
:10077000DF92EF92FF926B017C01EBDED701C601A5
:1007800081709927AA27BB27880F880F880FE091CF
:100790001E01F0911F0180620995D701C60139E061
:1007A000B695A795979587953A95D1F7E0911E0153
:1007B000F0911F010995D701C601B695A7959795A8
:1007C0008795E0911E01F0911F010995E0911E01AE
:1007D000F0911F0180E0FF90EF90DF90CF9009949F
:1007E000CF92DF92EF92FF920F931F93CF93DF93FD
:1007F0006B017C01C42FD22FACDE97018601017002
:10080000112722273327802F880F880F880FE09128
:100810001E01F0911F0180640995D701C60159E0BE
:10082000B695A795979587955A95D1F7E0911E01B2
:10083000F0911F010995D701C601B695A795979527
:100840008795E0911E01F0911F010995E0911E012D
:10085000F0911F018C2F0995D11101C004C0CF3731
:1008600021F48FE0DBDD80E010C0D6B5CEE1C7011A
:10087000B6017DDF8F37B9F786B58D1B8D3310F04C
:10088000D6B5C150C111F3CF81E0DF91CF911F9157
:100890000F91FF90EF90DF90CF900895CF92DF926D
:1008A000EF92FF920F931F93CF93DF931F92CDB7D9
:1008B000DEB76B017C0149834CDEE0911E01F091B3
:1008C0001F018CE40995D701C60179E0B695A7957B
:1008D000979587957A95D1F7E0911E01F0911F01C8
:1008E0000995D701C601B695A79597958795E0918B
:1008F0001E01F0911F010995E0911E01F0911F0169
:1009000080E0099549814F3F19F48FE087DD11C0E0
:1009100006B51EE1C701B6012ADF8F3F51F486B547
:10092000801B8D3310F006B511501111F3CF81E00B
:1009300001C080E00F90DF91CF911F910F91FF9048
:10094000EF90DF90CF9008951F93CF93DF931F9286
:10095000CDB7DEB7182FE0911E01F0911F0180EA9C
:1009600099830995E0911E01F0911F019981892FCA
:100970000995E0911E01F0911F01812F0995E091E9
:100980001E01F0911F0180E00F90DF91CF911F9128
:1009900009941F93CF93DF9300D0CDB7DEB7182F04
:1009A000E0911E01F0911F0180EC6A839983099503
:1009B000E0911E01F0911F019981892F0995E09125
:1009C0001E01F0911F01812F0995E0911E01F09108
:1009D0001F016A81862F09958EE120DD80E00F904E
:1009E0000F90DF91CF911F910895CF93DF93EC018A
:1009F0002981213061F4329902C085E002C08091E2
:100A00000401D5DD10920501419853DE0AC222335C
:100A100051F4329902C085E002C080910401C7DD23
:100A200041985BDEFEC1233379F42A988A81809352
:100A300000019F8180E03E81832B9093070180938A
:100A4000060120930801DCC1243371F42A988A81BD
:100A5000809300019F8180E02E81822B909307017B
:100A60008093060182E3CAC1263419F44198E1DC7F
:100A7000D8C1293441F4E2DC60E08A815EDD8093F4
:100A80000901F7DC7CC12734E1F4D8DC60E08A811D
:100A900054DD8B81823011F48D81FCDC8B818823C5
:100AA00011F08C81F7DCD0DC61E08A8146DD9F812A
:100AB00080E02E81822B909307018093060186E3CC
:100AC0009DC12834C1F4BADC60E08A8136DD8B81B7
:100AD000823011F48D81DEDC8B81882311F08C81D2
:100AE000D9DC9F8180E02E81822B90930701809337
:100AF000060185E383C12D35C1F49B8180E02A8105
:100B0000822B90931201809311018C8180931301A9
:100B10008D81809314019F8180E02E81822B9093A0
:100B20000701809306018AE369C12C35A1F40DD435
:100B30009B8180E02A816C81822B11D49F8180E08F
:100B40002E81822B9093070180930601892B09F453
:100B500045D489E353C12E3529F443D4813009F0BB
:100B6000DCC00BC1223011F4C5DD02C12330F9F421
:100B7000E0911E01F0911F018A810995809309017E
:100B8000E0911E01F0911F018B81099580930A016C
:100B9000E0911E01F0911F018C81099580930B015A
:100BA000E0911E01F0911F018D81099535C124301E
:100BB000F1F480910501811110C09B8180E02A81B0
:100BC000822BAA2797FDA095BA2F809315019093A9
:100BD0001601A0931701B09318019F8180E02E8128
:100BE000822B909307018093060182E007C1273092
:100BF000F1F480910501811110C09B8180E02A8170
:100C0000822BAA2797FDA095BA2F80931501909368
:100C10001601A0931701B09318019F8180E02E81E7
:100C2000822B909307018093060183E0E7C0253073
:100C300011F468DDA2C0263099F58091050181117B
:100C400010C09B8180E02A81822BAA2797FDA09566
:100C5000BA2F8093150190931601A0931701B093BA
:100C600018013C812D81822F8F7080931B01822F70
:100C7000807F40E1849FC0011124830F911D9093D8
:100C80001A018093190120FD80931C019F8180E04F
:100C90002E81822B909307018093060181E0AEC0E4
:100CA000283021F580910501811110C09B8180E0E1
:100CB0002A81822BAA2797FDA095BA2F8093150130
:100CC00090931601A0931701B093180110921A0186
:100CD0001092190110921B019F8180E02E81822BBE
:100CE000909307018093060184E088C0293081F445
:100CF00081E0809305018A819B81AC81BD818093D5
:100D0000150190931601A0931701B093180189C0A3
:100D10002A3031F48A8180930401109209012FC096
:100D20002B3091F49B8180E02A81822B90932501C6
:100D3000809324012A9A229A83E070DB2A984198B2
:100D400080E16CDBBCD96DC02C30A1F480ECC7D93C
:100D500080E0C5D98AE062DB2A9A85E05FDB2A98C9
:100D600085E05CDB84B1837D84B985B1837D85B901
:100D7000419A57C02D3031F4D5D98093090121E033
:100D800030E051C02E3019F48A81A9D94AC02F30E1
:100D9000D1F45B8140E08A81482B662757FD60953E
:100DA000762F4093150150931601609317017093AD
:100DB00018019F8180E02E81822B90930701809300
:100DC000060185E01BC02031F1F45B8140E08A819F
:100DD000482B662757FD6095762F40931501509359
:100DE000160160931701709318019F8180E02E8196
:100DF000822B909307018093060186E0809308017F
:100E00002FEF3FEF10C02F3761F481E0809309018D
:100E100010920A0110920B0180930C0124E030E043
:100E200002C020E030E089E091E0909335018093AA
:100E30003401C901DF91CF910895EF92FF920F9392
:100E40001F93CF93DF93E82E792FF62E8091080120
:100E5000982F9250923008F463C0853009F48CC00A
:100E6000833339F0893309F45DC0863309F0D1C08A
:100E70002EC08091060190910701262F30E0821745
:100E8000930708F4F82ECE2DD72F10C0E0911E0145
:100E9000F0911F0180E0099589938091060190915E
:100EA0000701019790930701809306018C2F8E19FB
:100EB0008F1560F38091060190910701892B09F04D
:100EC000AAC080910001882341F12A9A26C080910E
:100ED000060190910701262F30E08217930708F44E
:100EE000F82ECE2DD72F0DC0019790930701809338
:100EF0000601892B11F481E001C080E0EFDA8883DC
:100F000021962C2F2E1980910601909107012F1503
:100F100058F3892B09F07FC0ACDA109208017BC02E
:100F2000893329F580910601909107012F2D30E03A
:100F30008217930708F4F82ECE2DD72F0BC036D288
:100F40008993809106019091070101979093070181
:100F5000809306018C2F8E198F1588F380910601DE
:100F600090910701892B09F056C038D2D6CF853031
:100F700019F0CE2DD72F45C04F2D6E2D8091150124
:100F800090911601E8D80091150110911601209159
:100F90001701309118010F0D111D211D311D0093F6
:100FA000150110931601209317013093180133C0D7
:100FB00080910801823051F4609115017091160101
:100FC0008091170190911801D2DB05C08091150125
:100FD00090911601B9DC88830091150110911601DA
:100FE00020911701309118010F5F1F4F2F4F3F4F76
:100FF00000931501109316012093170130931801E7
:1010000021968C2F8E198F1598F287E08F1518F086
:1010100084CFFF24FA948F2DDF91CF911F910F91F0
:10102000FF90EF900895CF92DF92EF92FF920F938F
:101030001F93CF93DF931F92CDB7DEB78C01F62EAF
:1010400080910801813009F4B1C0843009F4AEC048
:10105000863009F4AFC0823371F18A3309F45AC083
:10106000853309F056C18091060190910701262F22
:1010700030E08217930708F4F82EE02E68010DC0C7
:10108000D6018D916D0106DA8091060190910701DC
:10109000019790930701809306018C2D8E198F156F
:1010A00078F38091060190910701892B11F050E0AF
:1010B00031C1DFD9A7C08091060190910701262F89
:1010C00030E08217930708F4F82EE02E680111C073
:1010D000E0911E01F0911F01D6018D916D010995DE
:1010E00080910601909107010197909307018093E9
:1010F00006018C2D8E198F1558F380910601909161
:101100000701892BA1F680910001882309F47AC098
:101110002A9A78C08091060190910701262F30E02D
:101120008217930708F4F82EE12C39C00ED1609194
:1011300013018091140190E0262F30E022503109F4
:1011400002C0880F991F2A95E2F720911101309172
:101150001201822B932B03D1F801EE0DF11D818139
:10116000D080C12C60E1F601E82BCF01F8D036D158
:1011700038D18130E9F380911101909112010196EB
:1011800090931201809311018091060190910701C3
:1011900002979093070180930601E394E394EF1480
:1011A00028F2809106019091070129C0E02E680184
:1011B00050E0A9C0462FB801809115019091160109
:1011C000D4D78091150190911601A0911701B0918B
:1011D00018018F0D911DA11DB11D809315019093D4
:1011E0001601A0931701B093180180910601909108
:1011F00007018F1991099093070180930601892BAC
:1012000009F055CF1092080151E084C08091080187
:10121000813089F52091190130911A0160911501F1
:10122000709116018091170190911801232B31F4D0
:1012300021E0D6014C915983D3DA25C020E0F60194
:1012400040815983CDDA80911C01815080931C012B
:101250005981811119C06091150170911601809119
:10126000170190911801D6014C9118DB809119015A
:1012700080931C0108C0F601608180911501909156
:101280001601598386DB59812091060130910701AF
:10129000215031093093070120930601232BE1F4FB
:1012A0001092080180911B0181FF15C020911C0143
:1012B00030E08091190190911A012817390759F0EF
:1012C000609115017091160180911701909118019C
:1012D000D6014C91E3DA51E000911501109116010D
:1012E00020911701309118010F5F1F4F2F4F3F4F73
:1012F00000931501109316012093170130931801E4
:10130000BFEFCB1ADB0A8C2D8E198F1508F47ECF18
:1013100001C05FEF852F0F90DF91CF911F910F914B
:10132000FF90EF90DF90CF9008951BB815B88BEF2A
:101330008AB98FEF84B914B883E087B99EEF98B962
:1013400085BD8CD178945BD0FECF2A982D9887D913
:101350002A9A2B9A84D92D9A82D92D9880C90F93D5
:101360001F93CF93DF931F92CDB7DEB78C0116C0CA
:10137000262F30E021503109C80102C0969587958B
:101380002A95E2F780FF02C02B9A01C02B982D9A74
:10139000698365D92D9863D9698161506111E8CF5E
:1013A0000F90DF91CF911F910F9108951F93CF93CD
:1013B000DF931F92CDB7DEB718E080E0880F2D9A3B
:1013C00089834DD92D984BD989811C998F5F1150F4
:1013D000A9F70F90DF91CF911F9108952A982D982A
:1013E0003EC92A9A83E08A95F1F7000038D91C9B00
:1013F00003C02A9880E008952A9881E00895CF9349
:10140000DF9360913601635067FDB2C08091330174
:10141000CCE0D0E0C81BD109C65CDE4F8091320120
:101420008D3209F091C0683009F0A0C083EC809340
:1014300026018AE58093010110921D018881807642
:1014400021F0CE01D2DA9C0167C09A8110922F015F
:101450008981811107C0109230018FE291E022E072
:1014600030E056C0853019F49093370145C086307E
:10147000D1F58B81813019F486E490E004C082308C
:1014800049F484E390E0909335018093340122E1A4
:1014900030E025C0833009F5911109C082E890E061
:1014A000909335018093340124E030E018C09130EE
:1014B00049F486E690E090933501809334012CE165
:1014C00030E00DC0923049F488E590E0909335010A
:1014D000809334012EE030E002C020E030E080E470
:1014E00080931D0119C0883061F0893019F4909300
:1014F000390102C08A3041F08FE291E020E030E013
:1015000007C089E391E002C08FE291E021E030E082
:1015100090933501809334012F3F8FEF380749F4C2
:10152000888187FF02C02E813F8180E880931D0162
:1015300006C08E819F818217930708F49C01309327
:1015400003012093020112C080911D0187FF0EC08C
:10155000CE0169DD8F3F21F48EE18093010106C049
:10156000882321F01092030110920201109236019B
:101570008091010184FF65C0809102019091030177
:101580008F3F2FEF920709F45CC0BC0189309105B1
:1015900010F068E070E0861B970B90930301809336
:1015A00002018091260198E8892780932601C62FA1
:1015B000662381F180911D0187FF05C087E291E0DC
:1015C0003CDCC82F25C0409134015091350186FF85
:1015D0000BC0FA01A7E2B1E0862F8A0F94919D9388
:1015E00031968A13FBCF09C0DA01E7E2F1E0862FDA
:1015F0008E0F9D9191938E13FCCF2C2F215030E0B4
:101600002F5F3F4F240F351F309335012093340156
:10161000C93070F46C2F87E291E0CFD5CC5FCC302D
:1016200071F02FEF3FEF309303012093020107C0C9
:101630008FEF9FEF9093030180930201CEE1C0935F
:10164000010184E193B1937031F48150D9F7109284
:10165000370110923101DF91CF910895E9E6F0E072
:0E166000808183608083E89A0895F894FFCF1C
:04166E00015AFFFF1F
:00000001FF
