:100000003BC0D8C054C053C052C051C050C04FC0F4
:100010004EC04DC04CC04BC04AC049C048C047C08C
:1000200046C045C044C00902120001010080190900
:10003000040000000000000012011001FF00000891
:10004000C016DC050401010200010E035500530037
:1000500042006100730070001C0377007700770096
:100060002E00660069007300630068006C002E00BB
:10007000640065000403090411241FBECFE5D4E029
:10008000DEBFCDBF10E0A0E6B0E0EEE5F6E102C0D5
:1000900005900D92A436B107D9F720E0A4E6B0E0B0
:1000A00001C01D92A03BB207E1F737D9D6CAA8CF4D
:1000B000BD9ABB98C39A50E217D05A95E9F70895B4
:1000C000AC0188E605D0842F03D089E601D0852FC6
:1000D0000FD028E030E0382780FB869506D02A959F
:1000E000D1F730FB02D000D06894BB98C39A16F0C9
:1000F000C398BB9AE0918400F09185003197F0F7A6
:10010000C59AE6B3E3FBE0918400F0918500319756
:10011000F0F7C598089520ECE7DF46F42A95E1F75B
:1001200080E02AE1E5DF2A95E9F7DECF28E030E03C
:10013000DBDF869587F938272A95D1F7D5DF27F9B0
:10014000322772F3D1DFD0CFDB01742FB9DF84E225
:10015000BFDFE1DF8D937A95D1F70895DB01742F2E
:10016000AFDF83EFB5DF8DE1B3DF84E6B1DF8D91E3
:10017000AFDF82E7ADDFCFDF8078D9F77A9589F7F7
:100180000895A82FB92F80E090E041E050EA6095F3
:1001900030E009C02D9182279795879510F084272C
:1001A0009527305EC8F36F5FA8F30895EADF8D935B
:1001B0009D930895CF93CFB7CF93C395B09BE9F7A5
:1001C000B09B09C0B09B07C0B09B05C0B09B03C0EB
:1001D000B09B01C0A1C0DF93C0919300DD27C6563C
:1001E000DF4FB09B02C0DF91EBCF2F930F931F9394
:1001F00006B32FEF00FB20F94F933F9316B34FEF59
:10020000012700FB21F93BE031C04E7F012F16B3DF
:10021000216028C0102F4D7F2260000006B329C046
:100220004B7F2460012F000016B32BC016B3477F0D
:1002300028602AC04F7E06B320612CC04F7D16B3C4
:1002400020622FC04F7B06B3206432C0422706B322
:1002500049934FEF0000102710FB20F916B31370DD
:10026000C9F1297F91F2012700FB21F906B3237F11
:1002700089F2315058F1102710FB22F916B3277E6E
:1002800079F2012700FB23F92F7C81F206B31027B6
:1002900010FB24F92F7971F200C016B3012700FB7F
:1002A00025F92F7359F200C006B3102710FB26F969
:1002B000223040F200C016B3012700FB27F924309A
:1002C00028F64F77206816B30000F9CF10E41ABF64
:1002D000002717C03B503195C31BD04010E41ABF14
:1002E0000881033CE9F00B34D9F020919100198189
:1002F000110F1213EDCF093641F10D3211F0013E0D
:1003000039F7009398003F914F911F910F912F91D2
:10031000DF91CAB7C6FD51CFCF91CFBFCF9118950E
:1003200020919800222379F310919600112311F562
:10033000343012F130939600209392001091930084
:100340003BE0311B3093930017C0009196000130C1
:100350008CF40AE53091610034FD10C00093610017
:10036000C6E8D0E00FC02795A8F45150A9F4220F99
:100370000000F9CF4AE503C042ED01C0432FC4E1BC
:10038000D0E032E017B31360C09A17BB08B320E483
:1003900013E05F93012756E008BB279520F45150E6
:1003A00021F4220FF9CF012756E000003B5A08BB89
:1003B000D0F2279528F4515029F4220F0000F9CFEC
:1003C000012756E0279508BB20F4515021F4220F55
:1003D000F9CF012756E02991332308BB21F60C7F82
:1003E00010919700110FC651D04008BB11F0109327
:1003F000910010E41ABF016017B31C7F402F4C7F9F
:100400005F9100C000C008BB17BB48BB7CCF90E029
:1004100006C032B722B7231B2C33E0F39F5F98133B
:10042000F8CF0895C498C398BC98BB980895BC9A17
:1004300080E18A95F1F700C00895BB9A80E18A9522
:10044000F1F700C0BC9880E18A95F1F700C0BB9835
:1004500080E18A95F1F700C0BC9A80E18A95F1F7B6
:1004600000C00895BB9ABC9A80E18A95F1F700C05C
:10047000BB9880E18A95F1F700C0BC9880E18A952D
:10048000F1F700C0089598E0BB9A87FF02C0BC98BE
:1004900001C0BC9A20E12A95F1F700C0BB9820E189
:1004A0002A95F1F700C0880F915071F7BB9ABC985C
:1004B00080E18A95F1F700C0BB9820E12A95F1F719
:1004C00000C086B38295817091E089270895282F16
:1004D000BB9ABC9830E13A95F1F700C0BB9880E137
:1004E0008A95F1F700C086B38295817097E0BB9A38
:1004F00030E13A95F1F700C0BB9830E13A95F1F759
:1005000000C0880FB4998160915089F7BB9A21117E
:1005100002C0BC9A01C0BC9890E19A95F1F700C066
:10052000BB9830E13A95F1F700C00895613011F4BD
:10053000816001C08E7FA7CF8FB9779BFECF8FB12F
:10054000089521E196958795779567952A95D1F736
:10055000209182002617D9F060938200E0917E00FE
:10056000F0917F008DE40995E0917E00F0917F008D
:1005700080E00995E0917E00F0917F0080918200FB
:100580000995E0917E00F0917F0080E00994089544
:10059000809181008DB9809180008EB90895882363
:1005A00019F0883098F101C08AE02CE932E03093EC
:1005B0007F0020937E001092800091E09093830052
:1005C0008B30A9F028F48830E9F0893091F418C014
:1005D0008D3049F050F08E3061F480E580938100D9
:1005E00090938000089580E50EC09093800081E58F
:1005F0000AC082E58093810081E0809380000895A5
:1006000082E501C083E58093810008952FE233E005
:1006100030937F0020937E00843079F028F482307C
:1006200081F0833081F40BC0863071F020F0873088
:1006300051F483E009C08CE007C088E105C080E385
:1006400003C080E601C080EC80938300089522B748
:100650009091830082B7821B8917E0F308950F936E
:100660001F93CF93DF931F92CDB7DEB708E010E062
:1006700087FF02C0C39A01C0C398880F110FB499B5
:100680001F5FC59A8983E3DFC598E1DF0150898147
:100690000111EECF812F0F90DF91CF911F910F911C
:1006A000089587B38C6287BBC298C598D0DFC29A81
:1006B000CEDFC29880917E0090917F008C5992404D
:1006C00009F466DF10928200089587B38C6287BBBD
:1006D00080917E0090917F008C59924009F458DF00
:1006E000C29A089587B3837D87BB88B3837D88BB17
:1006F0001DB80895CF93DF93C1E229C0E0917E0039
:10070000F0917F008CEA0995E0917E00F0917F00E6
:1007100083E50995E0917E00F0917F0080E00995E6
:10072000D82FE0917E00F0917F0080E00995D335CD
:1007300091F01DB88CDFC29A8ADFC29888DF809161
:100740007E0090917F008C59924009F421DFC150C6
:10075000A9F681E001C080E0DF91CF910895CF92AA
:10076000DF92EF92FF926B017C01EBDED701C601B5
:1007700081709927AA27BB27880F880F880FE091DF
:100780007E00F0917F0080620995D701C60139E0B3
:10079000B695A795979587953A95D1F7E0917E0004
:1007A000F0917F000995D701C601B695A795979559
:1007B0008795E0917E00F0917F000995E0917E00A1
:1007C000F0917F0080E0FF90EF90DF90CF90099450
:1007D000CF92DF92EF92FF920F931F93CF93DF930D
:1007E0006B017C01C42FD22FACDE97018601017012
:1007F000112722273327802F880F880F880FE09139
:100800007E00F0917F0080640995D701C60159E010
:10081000B695A795979587955A95D1F7E0917E0063
:10082000F0917F000995D701C601B695A7959795D8
:100830008795E0917E00F0917F000995E0917E0020
:10084000F0917F008C2F0995D11101C004C0CF37E2
:1008500021F48FE0DCDD80E010C0D2B7CEE1C7012B
:10086000B6017DDF8F37B9F782B78D1B8D3310F05E
:10087000D2B7C150C111F3CF81E0DF91CF911F9169
:100880000F91FF90EF90DF90CF900895CF92DF927D
:10089000EF92FF920F931F93CF93DF931F92CDB7E9
:1008A000DEB76B017C0149834CDEE0917E00F09164
:1008B0007F008CE40995D701C60179E0B695A7952C
:1008C000979587957A95D1F7E0917E00F0917F001A
:1008D0000995D701C601B695A79597958795E0919B
:1008E0007E00F0917F000995E0917E00F0917F00FD
:1008F00080E0099549814F3F19F48FE088DD11C0F0
:1009000002B71EE1C701B6012ADF8F3F51F482B75B
:10091000801B8D3310F002B711501111F3CF81E01D
:1009200001C080E00F90DF91CF911F910F91FF9058
:10093000EF90DF90CF9008951F93CF93DF931F9296
:10094000CDB7DEB7182FE0917E00F0917F0080EAEE
:1009500099830995E0917E00F0917F009981892F1C
:100960000995E0917E00F0917F00812F0995E0913B
:100970007E00F0917F0080E00F90DF91CF911F917A
:1009800009941F93CF93DF9300D0CDB7DEB7182F14
:10099000E0917E00F0917F0080EC6A839983099555
:1009A000E0917E00F0917F009981892F0995E09177
:1009B0007E00F0917F00812F0995E0917E00F091FB
:1009C0007F006A81862F09958EE121DD80E00F90FE
:1009D0000F90DF91CF911F910895CF93DF93EC019A
:1009E0002981213061F49A9902C085E002C080918A
:1009F0006400D5DD10926500A99853DE0AC2223347
:100A000051F49A9902C085E002C080916400C7DD6C
:100A1000A9985BDEFEC1233379F4C2988A81809362
:100A200060009F8180E03E81832B909367008093DC
:100A3000660020936800DCC1243371F4C2988A8177
:100A4000809360009F8180E02E81822B90936700CD
:100A50008093660082E3CAC1263419F4A998E2DCC7
:100A6000D8C1293441F4E3DC60E08A815FDD809302
:100A70006900F8DC7CC12734E1F4D9DC60E08A81CC
:100A800055DD8B81823011F48D81FDDC8B818823D3
:100A900011F08C81F8DCD1DC61E08A8147DD9F8137
:100AA00080E02E81822B909367008093660086E31E
:100AB0009DC12834C1F4BBDC60E08A8137DD8B81C5
:100AC000823011F48D81DFDC8B81882311F08C81E1
:100AD000DADC9F8180E02E81822B909367008093E7
:100AE000660085E383C12D35C1F49B8180E02A81B6
:100AF000822B90937200809371008C81809373009D
:100B00008D81809374009F8180E02E81822B909351
:100B10006700809366008AE369C12C35A1F40DD487
:100B20009B8180E02A816C81822B11D49F8180E09F
:100B30002E81822B9093670080936600892B09F4A5
:100B400045D489E353C12E3529F443D4813009F0CB
:100B5000DCC00BC1223011F4C5DD02C12330F9F431
:100B6000E0917E00F0917F008A8109958093690071
:100B7000E0917E00F0917F008B81099580936A005F
:100B8000E0917E00F0917F008C81099580936B004D
:100B9000E0917E00F0917F008D81099535C1243070
:100BA000F1F480916500811110C09B8180E02A8161
:100BB000822BAA2797FDA095BA2F8093750090935A
:100BC0007600A0937700B09378009F8180E02E811B
:100BD000822B909367008093660082E007C12730E4
:100BE000F1F480916500811110C09B8180E02A8121
:100BF000822BAA2797FDA095BA2F8093750090931A
:100C00007600A0937700B09378009F8180E02E81DA
:100C1000822B909367008093660083E0E7C02530C5
:100C200011F468DDA2C0263099F58091650081112C
:100C300010C09B8180E02A81822BAA2797FDA09576
:100C4000BA2F8093750090937600A0937700B093AD
:100C500078003C812D81822F8F7080937B00822FC2
:100C6000807F40E1849FC0011124830F911D9093E8
:100C70007A008093790020FD80937C009F8180E042
:100C80002E81822B909367008093660081E0AEC036
:100C9000283021F580916500811110C09B8180E092
:100CA0002A81822BAA2797FDA095BA2F80937500E1
:100CB00090937600A0937700B093780010927A001A
:100CC0001092790010927B009F8180E02E81822B10
:100CD000909367008093660084E088C0293081F497
:100CE00081E0809365008A819B81AC81BD81809386
:100CF000750090937600A0937700B093780089C038
:100D00002A3031F48A8180936400109269002FC0E8
:100D10002B3091F49B8180E02A81822B9093850077
:100D200080938400C29ABA9A83E071DBC298A99832
:100D300080E16DDBBDD96DC02C30A1F480ECC8D949
:100D400080E0C6D98AE063DBC29A85E060DBC298A6
:100D500085E05DDB87B3837D87BB88B3837D88BBFC
:100D6000A99A57C02D3031F4D6D98093690021E07B
:100D700030E051C02E3019F48A81AAD94AC02F30F0
:100D8000D1F45B8140E08A81482B662757FD60954E
:100D9000762F4093750050937600609377007093A0
:100DA00078009F8180E02E81822B90936700809352
:100DB000660085E01BC02031F1F45B8140E08A8150
:100DC000482B662757FD6095762F4093750050930A
:100DD000760060937700709378009F8180E02E8189
:100DE000822B909367008093660086E08093680072
:100DF0002FEF3FEF10C02F3761F481E0809369003F
:100E000010926A0010926B0080936C0024E030E036
:100E100002C020E030E089E690E090939500809356
:100E20009400C901DF91CF910895EF92FF920F9343
:100E30001F93CF93DF93E82E792FF62E80916800D1
:100E4000982F9250923008F463C0853009F48CC01A
:100E5000833339F0893309F45DC0863309F0D1C09A
:100E60002EC08091660090916700262F30E0821797
:100E7000930708F4F82ECE2DD72F10C0E0917E00F6
:100E8000F0917F0080E009958993809166009091B0
:100E90006700019790936700809366008C2F8E19EE
:100EA0008F1560F38091660090916700892B09F09F
:100EB000AAC080916000882341F1C29A26C0809127
:100EC000660090916700262F30E08217930708F4A0
:100ED000F82ECE2DD72F0DC00197909367008093E9
:100EE0006600892B11F481E001C080E0F0DA88838C
:100EF00021962C2F2E1980916600909167002F1556
:100F000058F3892B09F07FC0ADDA109268007BC0DE
:100F1000893329F580916600909167002F2D30E08C
:100F20008217930708F4F82ECE2DD72F0BC036D298
:100F30008993809166009091670001979093670074
:100F4000809366008C2F8E198F1588F38091660030
:100F500090916700892B09F056C038D2D6CF8530E2
:100F600019F0CE2DD72F45C04F2D6E2D80917500D5
:100F700090917600E9D8009175001091760020914B
:100F80007700309178000F0D111D211D311D009348
:100F9000750010937600209377003093780033C06B
:100FA00080916800823051F46091750070917600F4
:100FB0008091770090917800D2DB05C08091750018
:100FC00090917600B9DC88830091750010917600CD
:100FD00020917700309178000F5F1F4F2F4F3F4FC8
:100FE000009375001093760020937700309378007B
:100FF00021968C2F8E198F1598F287E08F1518F097
:1010000084CFFF24FA948F2DDF91CF911F910F9100
:10101000FF90EF900895CF92DF92EF92FF920F939F
:101020001F93CF93DF931F92CDB7DEB78C01F62EBF
:1010300080916800813009F4B1C0843009F4AEC0F9
:10104000863009F4AFC0823371F18A3309F45AC093
:10105000853309F056C18091660090916700262F74
:1010600030E08217930708F4F82EE02E68010DC0D7
:10107000D6018D916D0107DA80916600909167002D
:10108000019790936700809366008C2D8E198F15C1
:1010900078F38091660090916700892B11F050E001
:1010A00031C1E0D9A7C08091660090916700262FDA
:1010B00030E08217930708F4F82EE02E680111C083
:1010C000E0917E00F0917F00D6018D916D01099530
:1010D00080916600909167000197909367008093DC
:1010E00066008C2D8E198F1558F3809166009091B3
:1010F0006700892BA1F680916000882309F47AC0EB
:10110000C29A78C08091660090916700262F30E0E7
:101110008217930708F4F82EE12C39C00ED16091A4
:1011200073008091740090E0262F30E02250310946
:1011300002C0880F991F2A95E2F720917100309123
:101140007200822B932B03D1F801EE0DF11D8181EA
:10115000D080C12C60E1F601E82BCF01F8D036D168
:1011600038D18130E9F3809171009091720001963D
:101170009093720080937100809166009091670057
:1011800002979093670080936600E394E394EF14D2
:1011900028F2809166009091670029C0E02E6801D6
:1011A00050E0A9C0462FB80180917500909176005B
:1011B000D5D78091750090917600A0917700B0917D
:1011C00078008F0D911DA11DB11D80937500909326
:1011D0007600A0937700B09378008091660090919C
:1011E00067008F1991099093670080936600892B9F
:1011F00009F055CF1092680051E084C080916800DA
:10120000813089F52091790030917A0060917500E4
:10121000709176008091770090917800232B31F4C3
:1012200021E0D6014C915983D3DA25C020E0F601A4
:1012300040815983CDDA80917C00815080937C007D
:101240005981811119C0609175007091760080916B
:10125000770090917800D6014C9118DB809179004D
:1012600080937C0008C0F6016081809175009091A8
:101270007600598386DB59812091660030916700A2
:10128000215031093093670020936600232BE1F44D
:101290001092680080917B0081FF15C020917C0036
:1012A00030E08091790090917A002817390759F041
:1012B0006091750070917600809177009091780030
:1012C000D6014C91E3DA51E000917500109176005F
:1012D00020917700309178000F5F1F4F2F4F3F4FC5
:1012E0000093750010937600209377003093780078
:1012F000BFEFCB1ADB0A8C2D8E198F1508F47ECF29
:1013000001C05FEF852F0F90DF91CF911F910F915B
:10131000FF90EF90DF90CF90089512BA18BA8BEF3C
:1013200081BB8FEF87BB17BA83E084BB9EEF95BB71
:1013300083BF8CD178945BD0FECFC298C59887D9F3
:10134000C29AC39A84D9C59A82D9C59880C90F9385
:101350001F93CF93DF931F92CDB7DEB78C0116C0DA
:10136000262F30E021503109C80102C0969587959B
:101370002A95E2F780FF02C0C39A01C0C398C59ABC
:10138000698365D9C59863D9698161506111E8CFD6
:101390000F90DF91CF911F910F9108951F93CF93DD
:1013A000DF931F92CDB7DEB718E080E0880FC59AB3
:1013B00089834DD9C5984BD98981B4998F5F1150D4
:1013C000A9F70F90DF91CF911F910895C298C5980A
:1013D0003EC9C29A83E08A95F1F7000038D9B49BE0
:1013E00003C0C29880E00895C29881E00895CF9329
:1013F000DF9360919600635067FDB2C080919300C7
:10140000CCE0D0E0C81BD109C656DF4F80919200D6
:101410008D3209F091C0683009F0A0C083EC809350
:1014200086008AE58093610010927D008881807635
:1014300021F0CE01D2DA9C0167C09A8110928F0010
:101440008981811107C0109290008FE890E022E01E
:1014500030E056C0853019F49093970045C086302F
:10146000D1F58B81813019F488E390E004C082309B
:1014700049F486E290E0909395008093940022E1F5
:1014800030E025C0833009F5911109C084E790E070
:10149000909395008093940024E030E018C0913040
:1014A00049F488E590E090939500809394002CE1B6
:1014B00030E00DC0923049F48AE490E090939500BA
:1014C000809394002EE030E002C020E030E080E421
:1014D00080937D0019C0883061F0893019F49093B1
:1014E000990002C08A3041F08FE890E020E030E0BF
:1014F00007C089E990E002C08FE890E021E030E089
:1015000090939500809394002F3F8FEF380749F414
:10151000888187FF02C02E813F8180E880937D0013
:1015200006C08E819F818217930708F49C01309337
:1015300063002093620012C080917D0087FF0EC07F
:10154000CE0169DD8F3F21F48EE18093610006C0FA
:10155000882321F01092630010926200109296008E
:101560008091610084FF65C080916200909163006A
:101570008F3F2FEF920709F45CC0BC0189309105C1
:1015800010F068E070E0861B970B909363008093E7
:1015900062008091860098E8892780938600C62F94
:1015A000662381F180917D0087FF05C087E890E088
:1015B0003CDCC82F25C0409194005091950086FFD7
:1015C0000BC0FA01A7E8B0E0862F8A0F94919D9393
:1015D00031968A13FBCF09C0DA01E7E8F0E0862FE5
:1015E0008E0F9D9191938E13FCCF2C2F215030E0C4
:1015F0002F5F3F4F240F351F3093950020939400A9
:10160000C93070F46C2F87E890E0D0D5CC5FCC3037
:1016100071F02FEF3FEF309363002093620007C01B
:101620008FEF9FEF9093630080936200CEE1C093B1
:10163000610084E196B3937031F48150D9F7109230
:10164000970010929100DF91CF91089585B7836044
:0E16500085BF8BB780648BBF0895F894FFCFE1
:04165E00015AFFFF2F
:00000001FF
