:1000000042C076C05BC05AC059C058C057C056C025
:1000100055C054C053C052C051C050C04FC04EC054
:100020004DC04CC04BC04AC049C048C047C046C084
:1000300045C044C0090212000101008019090400F2
:1000400000000000000012011001FF000008C016AF
:10005000DC050401010200010E03550053004200BB
:100060006100730070001C037700770077002E009A
:10007000660069007300630068006C002E00640075
:1000800065000403090411241FBECFEFD2E0DEBFD8
:10009000CDBF11E0A0E0B1E0E8E9FFE002C00590CB
:1000A0000D92A430B107D9F721E0A4E0B1E001C07E
:1000B0001D92AA34B207E1F727D66CC7A1CFA82FAB
:1000C000B92F80E090E041E050EA609530E009C04F
:1000D0002D9182279795879510F084279527305E7C
:1000E000C8F36F5FA8F30895EADF8D939D93089599
:1000F000CF93CFB7CF93C395189BE9F7189B09C04F
:10010000189B07C0189B05C0189B03C0189B01C013
:10011000A1C0DF93C0912D01DD27CC5CDE4F189B81
:1001200002C0DF91EBCF2F930F931F9303B12FEFFB
:1001300000FB20F94F933F9313B14FEF012700FBD2
:1001400021F93BE031C04E7F012F13B1216028C05F
:10015000102F4D7F2260000003B129C04B7F246027
:10016000012F000013B12BC013B1477F28602AC0B4
:100170004F7E03B120612CC04F7D13B120622FC090
:100180004F7B03B1206432C0422703B149934FEF44
:100190000000102710FB20F913B11370C9F1297F5B
:1001A00091F2012700FB21F903B1237F89F231503D
:1001B00058F1102710FB22F913B1277E79F201279D
:1001C00000FB23F92F7C81F203B1102710FB24F9E7
:1001D0002F7971F200C013B1012700FB25F92F73AD
:1001E00059F200C003B1102710FB26F9223040F26B
:1001F00000C013B1012700FB27F9243028F64F7700
:10020000206813B10000F9CF11E01CBB002717C014
:100210003B503195C31BD04011E01CBB0881033C0F
:10022000E9F00B34D9F020912B011981110F121331
:10023000EDCF093641F10D3211F0013E39F700934F
:1002400032013F914F911F910F912F91DF91CCB3CC
:10025000C0FD51CFCF91CFBFCF91189520913201E2
:10026000222379F310913001112311F5343012F16A
:100270003093300120932C0110912D013BE0311B74
:1002800030932D0117C00091300101308CF40AE544
:100290003091010134FD10C000930101C0E2D1E0B2
:1002A0000FC02795A8F45150A9F4220F0000F9CFF0
:1002B0004AE503C042ED01C0432FC4E1D0E032E083
:1002C00014B11360289A14B905B120E413E05F93C8
:1002D000012756E005B9279520F4515021F4220F4B
:1002E000F9CF012756E000003B5A05B9D0F2279517
:1002F00028F4515029F4220F0000F9CF012756E0CD
:10030000279505B920F4515021F4220FF9CF012788
:1003100056E02991332305B921F60C7F1091310164
:10032000110FC651D04005B911F010932B0111E007
:100330001CBB016014B11C7F402F4C7F5F9100C03B
:1003400000C005B914B945B97CCF90E006C036B5F8
:1003500026B5231B2C33E0F39F5F9813F8CF089545
:100360008EBD0DB407FEFDCF8EB5089521E19695A3
:100370008795779567952A95D1F720911E012617C5
:10038000D9F060931E01E0911B01F0911C018DE4F6
:100390000995E0911B01F0911C0180E00995E09125
:1003A0001B01F0911C0180911E010995E0911B0138
:1003B000F0911C0180E00994089580911D018CBD8D
:1003C00080911A018DBD0895882319F0883098F125
:1003D00001C08AE020EB31E030931C0120931B0127
:1003E00010921A0191E090931F018B30A9F028F42C
:1003F0008830E9F0893091F418C08D3049F050F020
:100400008E3061F480E580931D0190931A01089568
:1004100080E50EC090931A0181E50AC082E58093C1
:100420001D0181E080931A01089582E501C083E5F2
:1004300080931D01089524E432E030931C01209341
:100440001B01843079F028F4823081F0833081F40C
:100450000BC0863071F020F0873051F483E009C082
:100460008CE007C088E105C080E303C080E601C0DE
:1004700080EC80931F01089526B590911F0186B5E9
:10048000821B8917E0F308950F931F93CF93DF9397
:100490001F92CDB7DEB708E010E087FF02C02B9AAD
:1004A00001C02B98880F110F1C991F5F2D9A89830B
:1004B000E3DF2D98E1DF015089810111EECF812F1B
:1004C0000F90DF91CF911F910F91089584B18C62AD
:1004D00084B92A982D98D0DF2A9ACEDF2A98809165
:1004E0001B0190911C01805B914009F466DF109222
:1004F0001E01089584B18C6284B980911B01909192
:100500001C01805B914009F458DF2A9A089584B158
:10051000837D84B985B1837D85B91CBC0895CF9353
:10052000DF93C1E229C0E0911B01F0911C018CEA2C
:100530000995E0911B01F0911C0183E50995E0917B
:100540001B01F0911C0180E00995D82FE0911B015F
:10055000F0911C0180E00995D33591F01CBC8CDF33
:100560002A9A8ADF2A9888DF80911B0190911C01CA
:10057000805B914009F421DFC150A9F681E001C000
:1005800080E0DF91CF910895CF92DF92EF92FF92BA
:100590006B017C01EBDED701C60181709927AA2788
:1005A000BB27880F880F880FE0911B01F0911C0179
:1005B00080620995D701C60139E0B695A795979550
:1005C00087953A95D1F7E0911B01F0911C010995AF
:1005D000D701C601B695A79597958795E0911B0120
:1005E000F0911C010995E0911B01F0911C0180E044
:1005F000FF90EF90DF90CF900994CF92DF92EF922F
:10060000FF920F931F93CF93DF936B017C01C42F55
:10061000D22FACDE970186010170112722273327E4
:10062000802F880F880F880FE0911B01F0911C012B
:1006300080640995D701C60159E0B695A7959795AD
:1006400087955A95D1F7E0911B01F0911C0109950E
:10065000D701C601B695A79597958795E0911B019F
:10066000F0911C010995E0911B01F0911C018C2F68
:100670000995D11101C004C0CF3721F48FE065DEA8
:1006800080E010C0D6B5CEE1C701B6017DDF8F375F
:10069000B9F786B58D1B8D3310F0D6B5C150C11199
:1006A000F3CF81E0DF91CF911F910F91FF90EF90F9
:1006B000DF90CF900895CF92DF92EF92FF920F9349
:1006C0001F93CF93DF931F92CDB7DEB76B017C01F1
:1006D00049834CDEE0911B01F0911C018CE40995EB
:1006E000D701C60179E0B695A795979587957A9534
:1006F000D1F7E0911B01F0911C010995D701C601CA
:10070000B695A79597958795E0911B01F0911C01EF
:100710000995E0911B01F0911C0180E00995498148
:100720004F3F19F48FE011DE11C006B51EE1C7017D
:10073000B6012ADF8F3F51F486B5801B8D3310F050
:1007400006B511501111F3CF81E001C080E00F9088
:10075000DF91CF911F910F91FF90EF90DF90CF909D
:1007600008951F93CF93DF931F92CDB7DEB7182F55
:10077000E0911B01F0911C0180EA99830995E091B9
:100780001B01F0911C019981892F0995E0911B01B2
:10079000F0911C01812F0995E0911B01F0911C0142
:1007A00080E00F90DF91CF911F9109941F93CF9319
:1007B000DF9300D0CDB7DEB7182FE0911B01F09189
:1007C0001C0180EC6A8399830995E0911B01F091EB
:1007D0001C019981892F0995E0911B01F0911C0161
:1007E000812F0995E0911B01F0911C016A81862FF0
:1007F00009958EE1AADD80E00F900F90DF91CF91F7
:100800001F910895CF93DF93EC012981213061F48A
:10081000329902C085E002C080910401D5DD1092BA
:100820000501419853DE22C1223351F4329902C0AE
:1008300085E002C080910401C7DD41985BDE16C1EE
:10084000233379F42A988A81809300019F8180E084
:100850003E81832B9093070180930601209308012A
:1008600011C0243391F42A988A81809300019F81DA
:1008700080E02E81822B909307018093060182E312
:10088000809308012FEF3FEFF3C0223019F43FDED1
:10089000419AECC02330F9F4E0911B01F0911C0166
:1008A0008A81099580930901E0911B01F0911C0157
:1008B0008B81099580930A01E0911B01F0911C0145
:1008C0008C81099580930B01E0911B01F0911C0133
:1008D0008D810995C6C02430F1F480910501811104
:1008E00010C09B8180E02A81822BAA2797FDA095CA
:1008F000BA2F8093110190931201A0931301B0932A
:1009000014019F8180E02E81822B909307018093B8
:10091000060182E0B5CF2730F1F480910501811105
:1009200010C09B8180E02A81822BAA2797FDA09589
:10093000BA2F8093110190931201A0931301B093E9
:1009400014019F8180E02E81822B90930701809378
:10095000060183E095CF253021F4E1DD8093090184
:1009600074C0263099F580910501811110C05B811A
:1009700040E08A81482B662757FD6095762F40938B
:1009800011015093120160931301709314013C8183
:100990002D81822F8F7080931701822F807F40E1FD
:1009A000849FC0011124830F911D909316018093A1
:1009B000150120FD809318019F8180E02E81822BFC
:1009C000909307018093060181E05ACF283021F5EA
:1009D00080910501811110C05B8140E08A81482B24
:1009E000662757FD6095762F4093110150931201B1
:1009F0006093130170931401109216011092150167
:100A0000109217019F8180E02E81822B9093070125
:100A10008093060184E034CF293081F481E0809313
:100A200005018A819B81AC81BD81809311019093E6
:100A30001201A0931301B093140118C02A3041F49D
:100A40008A81809304011092090121E030E010C0F6
:100A50002F3761F41092090110920A0110920B01D4
:100A60008BE080930C0124E030E002C020E030E015
:100A700089E091E090932F0180932E01C901DF91CD
:100A8000CF9108950F931F93CF93DF93182F492F82
:100A9000062F80910801982F9250923018F4C12FA0
:100AA000D42F5AC0833309F060C0209106013091E1
:100AB0000701862F90E02817390708F4022FC12F6D
:100AC000D42F11C0E0911B01F0911C0180E0099529
:100AD000899320910601309107012150310930930B
:100AE0000701209306018C2F811B801758F320915A
:100AF000060130910701232BC9F58091000188235D
:100B000089F12A9A2FC080910801823051F46091B6
:100B1000110170911201809113019091140134DD43
:100B200005C080911101909112011BDE88834091D4
:100B300011015091120160911301709114014F5FE6
:100B40005F4F6F4F7F4F409311015093120160939D
:100B500013017093140121968C2F811B801798F23A
:100B6000083020F41092080101C00FEF802FDF91B0
:100B7000CF911F910F910895FF920F931F93CF93E1
:100B8000DF93082F492F162F80910801813021F41F
:100B9000C02FD42FF12CA7C08430D1F3823309F0B9
:100BA000A8C08091060190910701262F30E082179E
:100BB000930708F4182FC02FD42F0FC0E0911B010A
:100BC000F0911C018991099580910601909107018E
:100BD000019790930701809306018C2F801B81174A
:100BE00068F38091060190910701892B09F084C078
:100BF0008091000181112A9A10920801FF24F39438
:100C00007CC080910801813059F520911501309107
:100C10001601609111017091120180911301909160
:100C20001401232B21F421E04881E7DC1FC020E0E0
:100C30004881E3DC80911801815080931801811173
:100C400015C0609111017091120180911301909172
:100C50001401488130DD809115018093180106C090
:100C600068818091110190911201A0DD209106010F
:100C7000309107012150310930930701209306017B
:100C8000232BE1F4109208018091170181FF14C019
:100C90002091180130E080911501909116012817DC
:100CA000390751F060911101709112018091130187
:100CB000909114014881FFDCFF24F39440911101CD
:100CC0005091120160911301709114014F5F5F4FB9
:100CD0006F4F7F4F409311015093120160931301A6
:100CE0007093140121968C2F801B811708F489CFF3
:100CF00004C0FF24FA9401C0F12C8F2DDF91CF9115
:100D00001F910F91FF9008951BB815B88BEF8AB90A
:100D10008FEF84B914B883E087B99EEF98B985BD89
:100D200032D1789401D0FECFCF93DF936091300120
:100D3000635067FDB2C080912D01CCE0D0E0C81BAC
:100D4000D109CC5CDE4F80912C018D3209F091C02D
:100D5000683009F0A0C083EC809320018AE580937D
:100D60000101109219018881807621F0CE014ADDBF
:100D70009C0167C09A81109229018981811107C065
:100D800010922A0189E291E022E030E056C08530DD
:100D900019F49093310145C08630D1F58B818130B3
:100DA00019F486E490E004C0823049F484E390E0D2
:100DB00090932F0180932E0122E130E025C08330F3
:100DC00009F5911109C082E890E090932F0180937A
:100DD0002E0124E030E018C0913049F486E690E01E
:100DE00090932F0180932E012CE130E00DC09230C2
:100DF00049F488E590E090932F0180932E012EE036
:100E000030E002C020E030E080E48093190119C096
:100E1000883061F0893019F49093330102C08A3030
:100E200041F089E291E020E030E007C083E391E007
:100E300002C089E291E021E030E090932F0180939D
:100E40002E012F3F8FEF380749F4888187FF02C0BA
:100E50002E813F8180E88093190106C08E819F8199
:100E60008217930708F49C01309303012093020139
:100E700012C08091190187FF0EC0CE017DDE8F3F29
:100E800021F48EE18093010106C0882321F01092A5
:100E9000030110920201109230018091010184FF40
:100EA00065C080910201909103018F3F2FEF92075F
:100EB00009F45CC0BC018930910510F068E070E075
:100EC000861B970B90930301809302018091200170
:100ED00098E8892780932001C62F662381F18091AD
:100EE000190187FF05C081E291E0CCDDC82F25C044
:100EF00040912E0150912F0186FF0BC0FA01A1E213
:100F0000B1E0862F8A0F94919D9331968A13FBCF7F
:100F100009C0DA01E1E2F1E0862F8E0F9D919193F5
:100F20008E13FCCF2C2F215030E02F5F3F4F240F2A
:100F3000351F30932F0120932E01C93070F46C2F90
:100F400081E291E0D1D8CC5FCC3071F02FEF3FEF50
:100F5000309303012093020107C08FEF9FEF90931E
:100F6000030180930201CEE1C093010184E193B1BA
:100F7000937031F48150D9F71092310110922B0106
:100F8000DF91CF910895E9E6F0E08081836080836E
:080F9000E89A0895F894FFCFE0
:040F9800015AFFFFFC
:00000001FF
