:1000000018C1000032C1000030C100002EC1000044
:100010002CC100002AC1000028C1000026C1000038
:1000200024C1000022C1000020C100000C9446152C
:100030001CC100001AC1000018C100008AC70000DE
:1000400014C1000012C1000010C100009AC10000DC
:100050000CC100000AC1000008C1000006C1000078
:1000600004C1000002C1000000C10000FEC0000089
:10007000FCC000001C0330003000300032003000B3
:100080003000300031003200330034003500000011
:100090000000180341005600520049005300500070
:1000A00020006D006B004900490000000C03410076
:1000B00054004D0045004C000000040309040902EF
:1000C0002000010100C0320904000002FF0000000E
:1000D0000705820240000A0705020240000A1201D9
:1000E0001001FF000010EB030421000201020301D4
:1000F00009000A000A000B000C000D000D000E00A4
:100100000F0010001000120013001300140016005E
:100110001600180019001A001C001D001F00200006
:10012000220023002500270029002B002E0030008C
:100130003200340037003A003D00400043004600E2
:100140004A004E00520055005A005E0063006800ED
:100150006D00730078007E0084008B009100990090
:10016000A000A900B100B900C300CC00D600E10096
:10017000EC00F700040111011E012D013B014B01B0
:100180005B016C017D019101A501BA01CF01E6017E
:10019000FE01160231024C026A028802A802CA025B
:1001A000ED021103380360038B03B803E70318045F
:1001B0004B048104B904F50434057505B90501063D
:1001C0004E069D06EF064807A30704086508D008F9
:1001D0004009B6092B0AAB0A300BC30B510CEE0CCD
:1001E0008F0D400EF60EAF0F681047111412F51266
:1001F000ED13E214F015F9161B185C19911AE51BA2
:10020000251D831E0320AB21302332250F27F12823
:10021000F82A1A2D492FA1311434A1364539173C3B
:100220001A3F34426045DF48704C40004101424370
:10023000030011241FBECFEFD2E0DEBFCDBF11E01F
:10024000A0E0B1E0EAE3FEE202C005900D92A23622
:10025000B107D9F721E0A2E6B1E001C01D92AD37A8
:10026000B207E1F747D00C941B17CACE95B19F7324
:10027000892B85B9089584B7877F84BF0FB6F8941A
:10028000A895809160008861809360001092600062
:100290000FBE90E080E80FB6F894809361009093D1
:1002A00061000FBE84B1806C84B985B18F7385B94C
:1002B0000C94371580ECDACF80E4D8CF42E360E8C5
:1002C00082E00E94A114811102C080E401C080E894
:1002D000CDCF8EB3843069F4E3D182E08093E9001E
:1002E0008091E80082FF05C080ECC0DF67D080E825
:1002F000BDCF0895C0DF5AD080E4B8DF789489B1CB
:1003000085B185B9E6DF0E94E816F9CF00C0292F34
:1003100033272230310559F02330310569F021307F
:10032000310539F582E190E02EED30E026C080E223
:1003300090E02EEB30E021C099278130910581F0CB
:100340002CF4892BB1F4EAEBF0E00FC08230910578
:1003500051F0039771F48CE190E024E730E00DC098
:10036000ECEAF0E002C0E2E9F0E0849190E09F0165
:1003700004C080E090E020E030E0FA013183208387
:10038000089578941F920F920FB60F9211248F93B5
:100390008AB5882321F08AB581508ABD01C015BC79
:1003A0008F910F900FBE0F901F9018958BE987BD0E
:1003B00082E084BD80936E0058D1F9C50F931F93DE
:1003C000CF93DF931F92CDB7DEB70091F10084E6A3
:1003D0008ABD85E085BD0D31D0F50A3108F0F6C043
:1003E000023109F4F1C028F5063009F4A9C048F437
:1003F000013009F45DC008F4F5C0043008F475C09C
:10040000F1C0003109F4D9C008F0D9C00A3009F0B0
:10041000E9C08091E8008B778093E80082E08093C8
:10042000E9008091EC0081608093EC000093F10082
:10043000ACC0063109F4C5C030F4043109F4C1C0C0
:10044000802F82D1F2C0083109F0C3C0BFC005338C
:1004500009F4A7C0A8F4013309F49AC048F40D3197
:1004600009F4BAC0003309F0BDC00E94C90FDDC055
:10047000033309F490C008F09DC00E940410D5C059
:10048000093309F494C040F4073309F487C008F035
:100490008BC00E949211C9C0003509F4A1C001357A
:1004A00009F49CC0003409F09DC00E944A13BDC0ED
:1004B0008091E8008B778093E80082E08093E900E8
:1004C0008091EC0081608093EC000093F100109229
:1004D000F1008AE08093F10040E050E06AE070E0D3
:1004E00087E591E00E9463139BC01091F1000230F8
:1004F00011F46091F1008091E8008B778093E8001F
:1005000082E08093E9008091EC0081608093EC00B0
:100510000093F100812F6983C4D06981023039F4DE
:1005200081FF0CC01092F100812FCBD079C080FFE9
:1005300005C01092F100812FBCD070C080EC6EC05D
:1005400040E050E064E070E08EE691E00E94F71336
:100550008091E8008B778093E80082E08093E90047
:100560008091EC0081608093EC0080916E0190910D
:100570006F01A0917001B0917101B7FF03C081E0DC
:1005800080936D0186E08093F1001092F10048C0E5
:100590000E94E60F4AC00E94491047C00E94FA110B
:1005A00044C00E942F1141C00E949B123EC00E9475
:1005B000EF123BC00E94B20F38C0C3D336C048D43C
:1005C00034C0802FECD131C077D42FC0802F85D29A
:1005D0002CC0802FDCD229C01CD327C043D725C014
:1005E00072D723C08091F200803441F48091E800FA
:1005F0008B778093E8000E94D214F4CF8091E800BA
:100600008B778093E80082E08093E9008091EC0092
:1006100081608093EC000093F10089EC8093F100FD
:100620008091E8008E778093E80015BC0E94D21478
:1006300082E08093E9008091EC008E7F8093EC0053
:100640000F90DF91CF911F910F910895E0E0F1E0BD
:100650009081891741F0339691E0EE31F907C1F7A7
:1006600080E090E00895CF010895CF93DF9381E07B
:1006700090E00E940117D82F80E090E00E940117BF
:10068000C82FDF3F21F08EE9E1DFFC01D283CF3FAD
:1006900021F088E9DBDFFC01C283DF91CF9108956F
:1006A0000895D4DF009719F0FC018181089580E05E
:1006B0000895CCDF009719F0FC018281089580E055
:1006C00008951F93CF93DF931F92CDB7DEB7182FF6
:1006D0006983BCDF6981009789F0FC0162831E3960
:1006E00019F481E090E004C0183941F480E090E012
:1006F0000F90DF91CF911F910C9409170F90DF910C
:10070000CF911F91089590911E01992331F08EBDD4
:100710000DB407FEFDCF8EB50895B0C490911E01B3
:10072000992329F08EBD0DB407FEFDCF0895A6C410
:1007300080911E01882331F01EBC0DB407FEFDCF51
:100740008EB5089580E09AC44F925F926F927F9227
:100750008F929F92AF92BF92CF92DF92EF92FF92D1
:100760000F931F93CF93DF93CDB7DEB7C950D1401E
:100770000FB6F894DEBF0FBECDBF182F40E050E09B
:1007800069E070E0CE0101960E94AD136A81798123
:100790007A836983613081E0780788F08091E8008E
:1007A0008B778093E80082E08093E9008091EC00F1
:1007B00081608093EC001093F10080ECD1C040E0A8
:1007C00050E0CE010A960E94AD1389819A810A9663
:1007D0008F739927892B39F48091E8008B77809368
:1007E000E8000E94D2148091E8008B778093E800A3
:1007F00082E08093E9008091EC0081608093EC00BE
:10080000133111F4C88401C0C98470906E016090E6
:100810006F01FE013A964F01A12CB12CE12CF12C75
:1008200088E0582E4424439489819A81A816B906F9
:1008300008F066C0F40101914F01DB8080916D01E9
:10084000882319F06ED410926D018D8167DF80913D
:100850006F0164DF80916E0161DF802F5FDF1331F4
:1008600019F49D8195259D83E114F10479F40C150B
:1008700069F08F81A0FE04C0133111F4886001C0BB
:10088000877F8F83E0906E01F0906F01D0FC13C0E2
:10089000E114F10431F4D3FC04C08D2D897F826012
:1008A000D82E0F812C814C2DB7018D2D43D4811171
:1008B00028C0E12CF12CA0FC02C01531E9F4809194
:1008C0006E0190916F01A0917001B091710101963C
:1008D000A11DB11D80936E0190936F01A0937001D3
:1008E000B0937101133141F4AA27BB27892B8A2BBE
:1008F0008B2B11F440926D01FFEFAF1ABF0A94CF1A
:1009000080E09B8197FF2AC08E8108DF862D06DF5D
:10091000872D04DF80E002DF8B8185FF06C0E114B4
:10092000F10419F48F7C80618B830F812C814C2D15
:10093000B7018B81FFD3133189F440916E0150913F
:100940006F01609170017091710166277727452BC7
:10095000462B472B19F491E090936D011093F10011
:100960008093F1008091E8008E778093E800C75F64
:10097000DE4F0FB6F894DEBF0FBECDBFDF91CF9133
:100980001F910F91FF90EF90DF90CF90BF90AF90AD
:100990009F908F907F906F905F904F900895DF921F
:1009A000EF92FF920F931F93CF93DF9300D01F928C
:1009B000CDB7DEB7F82E40E050E063E070E0CE0146
:1009C00001960E94AD1389819A8199838A838091CF
:1009D000E8008B778093E80082E08093E9008091C3
:1009E000EC0081608093EC00F092F1001092F10035
:1009F00000E010E088E0E82EDD24D39489819A811C
:100A00000817190708F04AC080916D01882319F072
:100A100088D310926D018B8181DE80916F017EDE23
:100A200080916E017BDE84DE8093F1008091E8008E
:100A300085FD07C08091E8008E778093E8000E94D2
:100A4000D21484E1F81203C08B818E258B8300FDC4
:100A500003C086E1F8121FC040916E0150916F01F2
:100A600060917001709171014F5F5F4F6F4F7F4FC9
:100A700040936E0150936F01609370017093710108
:100A800086E1F81641F066277727452B462B472B42
:100A900011F4D0926D010F5F1F4FB0CF1092F10093
:100AA0009091E8008091E8008E778093E80095FDB2
:100AB00009C00E94D2148091E8008E778093E800EC
:100AC0000E94D2140F900F900F90DF91CF911F9141
:100AD0000F91FF90EF90DF900895CF92DF92EF9209
:100AE000FF920F931F93CF93DF93CDB7DEB7299774
:100AF0000FB6F894DEBF0FBECDBFD82E40E050E059
:100B000065E070E0CE0101960E94AD139091E8007F
:100B10009B779093E80082E08093E9009091EC004D
:100B200091609093EC007E0182E0E80EF11C8E0152
:100B30000A5F1F4F84E0C82EC00EF70181917F012C
:100B4000E2DDF80181938F01CE12F7CFD092F10050
:100B50001092F1008981FE01E80FF11D85818093DB
:100B6000F1001092F1008091E8008E778093E80008
:100B700029960FB6F894DEBF0FBECDBFDF91CF919F
:100B80001F910F91FF90EF90DF90CF900895EF921B
:100B9000FF920F931F93CF93DF9300D000D0CDB778
:100BA000DEB7F82E40E050E064E070E0CE01019640
:100BB0000E94AD139091E8009B779093E80082E04B
:100BC0008093E9009091EC0091609093EC008E018D
:100BD0000F5F1F4F84E0E82EE00EF80181918F0136
:100BE0009DDDE012FACFF092F1001092F100109228
:100BF000F1008091E8008E778093E8000F900F90CD
:100C00000F900F90DF91CF911F910F91FF90EF9078
:100C10000895FF920F931F93CF93DF93CDB7DEB765
:100C2000C250D1400FB6F894DEBF0FBECDBF40E03A
:100C300050E063E070E0CE0101960E94AD1369813F
:100C400070E040E050E0CE0104960E94AD13809128
:100C5000E8008B778093E80082E08093E900809140
:100C6000EC0081608093EC008DE18093F1001092A4
:100C7000F10010E08B81181778F48981181740F47F
:100C8000E4E0F0E0EC0FFD1FE10FF11D808101C0F9
:100C900080E044DD1F5FEECF00E08A81081710F589
:100CA0008981181778F4FF24F394F10EE4E0F0E062
:100CB000EC0FFD1FE10FF11D808125DD8093F10018
:100CC0001F2D03C035DD8093F1008091E80085FD84
:100CD00007C08091E8008E778093E8000E94D214CC
:100CE0000F5FDBCF1092F1009091E8008091E80057
:100CF0008E778093E80095FD09C00E94D214809100
:100D0000E8008E778093E8000E94D214CE5FDE4F19
:100D10000FB6F894DEBF0FBECDBFDF91CF911F910C
:100D20000F91FF900895882359F09AB58150992327
:100D300039F0EFE9FFE03197F1F700C00000F3CFA1
:100D40000895BF92CF92DF92EF92FF920F931F937D
:100D5000CF93DF93CDB7DEB72F970FB6F894DEBFF2
:100D60000FBECDBF40E050E06BE070E0CE010196D9
:100D70000E94AD138091E8008B778093E80082E0B9
:100D80008093E9008091EC0081608093EC001092E8
:100D90006E0110926F0110927001109271018B819F
:100DA000C2DF45D181E093D18A81BDDF7E018CE035
:100DB000E80EF11C84E0B82EBE0C8C819FEF980FDA
:100DC0009C83882351F18AB5882339F1CE01089696
:100DD0006C0187018D81A7DFF60181916F0193DCA2
:100DE000F80181938F01BE12F5CF8F81882351F0D6
:100DF000EBE0F0E0EC0FFD1FE80FF11D90818E811C
:100E0000981302C080E00AC080E061D18A818BDF44
:100E100081E05DD18A8187DFD0CF80EC90E1909333
:100E2000F1008093F1008091E8008E778093E800D4
:100E30002F960FB6F894DEBF0FBECDBFDF91CF91D6
:100E40001F910F91FF90EF90DF90CF90BF9008958A
:100E50000F931F93CF93DF9300D0CDB7DEB740E061
:100E600050E062E070E0CE0101960E94AD1308EE02
:100E700010E0F80180818B77808382E08093E90025
:100E8000ECEEF0E080818160808389814CDF80E03E
:100E90001ED1A1D08A8147DFE1EFF0E081E18083BC
:100EA0001082F80180818E7780830F900F90DF9100
:100EB000CF911F910F910895EF92FF920F931F937F
:100EC000CF93DF9300D000D000D0CDB7DEB740E0A5
:100ED00050E066E070E0CE0101960E94AD13809173
:100EE000E8008B778093E80082E08093E9008091AE
:100EF000EC0081608093EC008E010D5F1F4F7E013E
:100F000087E0E80EF11CF80181918F0107DC0E15D6
:100F10001F05C9F78A81811104C0898104DF80E03F
:100F200001C0E1D092E19093F1008093F1008091B3
:100F3000E8008E778093E80026960FB6F894DEBF1F
:100F40000FBECDBFDF91CF911F910F91FF90EF901A
:100F500008951F920F920FB60F9211248F93199933
:100F600008C08091630187FF02C02A9A19C02A989D
:100F700017C080916301880F8093630180916201A3
:100F8000815080936201811104C01092810082E03F
:100F900086BB1B9B05C080916301816080936301C8
:100FA000199A8F910F900FBE0F901F9018953E9A2F
:100FB00010926F00109285001092840081E090E002
:100FC000909389008093880080E48093800089E07A
:100FD00080938100089580911E01882349F084B197
:100FE000897F84B985B1867F85B91CBC1DBC0895F5
:100FF00084B1897F84B985B1867F85B9D8CF92E0E5
:1010000090936F001092850010928400E82FF0E01A
:10101000EE0FFF1FEE51FF4F859194919093890041
:10102000809388001092800010928100089588E9D2
:1010300040DB8730D0F491E090931E01E82FF0E080
:10104000E65DFD4FE491209A289A84B1866084B9C8
:1010500023982B9A8DB5E6FF02C0816001C08E7F78
:101060008DBD2098E065ECBD089510921E0194B1ED
:10107000966094B995B1996095B9C1CF8093630199
:1010800088E0809362018091630187FF02C02A9A01
:1010900001C02A9810928500109284008AE0809303
:1010A000810080916201882319F08AB58111F9CFFE
:1010B0001092810080916301089590911E019923FF
:1010C00029F08EBD0DB407FEFDCF0895D7CF88233C
:1010D00039F0249A8EE9EDDA811103C02C9A089533
:1010E00024982C98089580EFE8DF80E0E6DF80E028
:1010F000E4DF80911E01882331F01EBC0DB407FE91
:10110000FDCF8EB502C080E0B9DF80FF03C08AB595
:101110008111E9CF8AB5811102C081E8089580E08C
:1011200008958DE4CADF80E0C8DF80917001C5DFDB
:1011300080E0C3CF0F931F93CF93DF93D62F172F4A
:10114000C42F8E77E82FF0E0E830F10579F134F420
:10115000E230F10559F03497A9F02AC0E032F105E8
:1011600089F0E034F10511F1709711F5822FDBDD84
:101170001FC00DB407FEFDCF8EB58C1312C09AB5FB
:10118000992379F0802F99DF812F97DF8D2F95DFBD
:1011900080911E01882311F01EBCEBCF80E06EDF32
:1011A000ECCF8AB5811104C080E803C09CDF01C088
:1011B00080E094E69ABDDF91CF911F910F91089541
:1011C000AF92BF92CF92DF92EF92FF920F931F9355
:1011D000CF93DF93CDB7DEB7C850D1400FB6F894A8
:1011E000DEBF0FBECDBF40E050E068E070E0CE0152
:1011F00001960E94AD138B819C812D813E813B83A2
:101200002C839D838E837F8168856F83788740E000
:1012100050E0CE0109960E94AD138F819885099602
:101220008F739927892B39F48091E8008B7780930D
:10123000E8000E94D2148091E8008B778093E80048
:1012400082E08093E9008091EC0081608093EC0063
:101250008091640181112DC0298121504B815C81D5
:101260006D817E812630A0F430E0F901E75CFE4F0D
:101270008081F901ED5CFE4F9081F901E35DFE4F45
:10128000E081D901A95DBE4F2C912223D9F003C082
:10129000E6E293E28EE2AF80B8849E01275F3F4F83
:1012A00069017A018B012A81482F6E2F892F56D42C
:1012B0000BC04F815885BE01675F7F4F8B819C813A
:1012C000F1D502C029851BD4882311F080E001C02C
:1012D00083E090E59093F10094E09093F100809387
:1012E000F1008091E8008E778093E800C85FDE4FC0
:1012F0000FB6F894DEBF0FBECDBFDF91CF911F9127
:101300000F91FF90EF90DF90CF90BF90AF90089536
:10131000CF93DF93CDB7DEB7C750D1400FB6F89467
:10132000DEBF0FBECDBF40E050E067E070E0CE0111
:101330008F5F9E4F0E94AD13CE5FDE4F8881C250FB
:10134000D140CD5FDE4F9881C350D140CC5FDE4F9E
:101350002881C450D140CB5FDE4F3881C550D14089
:10136000CE5FDE4F3883C250D140CD5FDE4F288341
:10137000C350D140CC5FDE4F9883C450D140CB5F87
:10138000DE4F8883C550D140CA5FDE4F8881C6508A
:10139000D140C95FDE4F9881C750D140CA5FDE4F50
:1013A0009883C650D140C95FDE4F8883C750D14073
:1013B0008091E8008B778093E80082E08093E900D9
:1013C0008091EC0081608093EC0080916401CA5FA1
:1013D000DE4F28813981C650D140811112C0CE5FC5
:1013E000DE4F688179818A819B81C250D140AE01F4
:1013F0004F5F5F4F40D3882311F080E00EC083E041
:101400000CC0A901BE016F5F7F4FCE5FDE4F8881A8
:101410009981C250D14019D5EECF90E59093F1005B
:1014200095E09093F1008093F10081110CC0CA5FA8
:10143000DE4F68817981C650D14040E050E0CE0156
:1014400001960E9463138091E8008E778093E800F4
:10145000C95FDE4F0FB6F894DEBF0FBECDBFDF9180
:10146000CF910895CF93DF931F92CDB7DEB740E0C1
:1014700050E061E070E0CE0101960E94AD138091D2
:10148000E8008B778093E80082E08093E900809108
:10149000EC0081608093EC0089818093640181E598
:1014A0008093F1008981813011F480EC01C080E0EB
:1014B0008093F1008091E8008E778093E8000F9090
:1014C000DF91CF910895CF93DF9300D000D000D06B
:1014D000CDB7DEB78091F100843009F493C038F4C1
:1014E000823081F108F04AC0813051F02BC1863042
:1014F00009F48CC008F488C0873009F4D1C022C137
:101500008091E8008B778093E80082E08093E90087
:101510008091EC0081608093EC00809164018111E6
:1015200002C024D205C0823011F449D401C080E049
:1015300090E59093F10091E09093F10098279093BB
:10154000F100FBC09091E8009B779093E8008093B6
:10155000E9008091EC0081608093EC00809164014F
:10156000811102C042D201C065D480E58093F100B0
:1015700082E08093F1001092F100DFC040E050E083
:1015800065E070E0CE0101960E94AD138A819B81D7
:101590002C813D813A832B839C838D838091E8004D
:1015A0008B778093E80082E08093E9008091EC00E3
:1015B00081608093EC0080916401E981811114C005
:1015C000E150E83028F4F0E0E15CFE4F808101C09A
:1015D00080E04A815B816C817D8132D3882311F068
:1015E00080E00BC083E009C0E13011F084E101C06C
:1015F00080E16A817B8192D4F1CF90E59093F100F4
:1016000093E097C0DDDD9EC083DE9CC040E050E0EB
:1016100061E070E0CE0106960E94AD138091E80073
:101620008B778093E80082E08093E9008091EC0062
:1016300081608093EC0080916401811112C08E81E1
:10164000813031F0823011F489E303C088E701C0B2
:1016500088E3BE016F5F7F4FD3D1811104C083E067
:1016600003C081E001C080E090E59093F10096E036
:101670009093F1008093F10081115FC089819A817C
:10168000AB81BC81CD01AA27BB278093F100898162
:101690009A81AB81BC818093F100892F99274BC03F
:1016A0008091F100833041F168F48130A1F0823003
:1016B00071F58091F1009091F10090932101809358
:1016C000220123C08430E9F0853009F58091F100D2
:1016D0008091F1001AC08091F1009091F100209169
:1016E000F1003091F1003093230120932401909375
:1016F00025018093260109C08091F100809320018B
:1017000004C08091F10080931F0180E001C081E05E
:101710009091E8009B779093E80092E09093E90025
:101720009091EC0091609093EC0090E59093F10023
:1017300097E09093F1008093F1008091E8008E771C
:101740008093E80026960FB6F894DEBF0FBECDBF9B
:10175000DF91CF9108954D99FECF4D9BFECF4D99CE
:10176000FECF5B9A539A8091C9008F7E8093C90007
:101770008091C90088608093C90081E080937201E4
:1017800008958091C80086FFFCCF8091C8008064D6
:101790008093C8008091C900877F8093C9008091A1
:1017A000C90080618093C90053985B9810927201C0
:1017B0000895809172018111E4DF80EC8093C8006C
:1017C0001092C9001092CA008AB1877D8AB98BB184
:1017D000837D8BB90895809172018111D2DF809150
:1017E000C800806C8093C8001092C9001092CA0093
:1017F0008AB1877D8AB98BB1837D8BB924982C9867
:101800000895CF93DF931F92CDB7DEB79091720109
:10181000911103C089839FDF89819091C80095FF52
:10182000FCCF9091C80090649093C8008093CE0044
:101830000F90DF91CF910895809172018111A1DF06
:101840008091C80087FD03C08AB58111F9CF8091CE
:10185000CE00089580917201811101C07CDF8CE07F
:101860004D99FECF4D9BFECF4D99FECF8150C1F7D4
:101870000895109272018AB188628AB952985B9A6F
:101880008FE891E00197F1F700C0000083E090E05D
:101890009093CD008093CC0088E08093C9008FE6C0
:1018A0008093CA00D7DFD6CF10927201249A2C9869
:1018B0008FE891E00197F1F700C000008AB18862DB
:1018C0008AB9529883E090E09093CD008093CC0049
:1018D00088E08093C9008FE68093CA00BBDFBACF4F
:1018E0001F93CF93DF9300D0CDB7DEB7182F862F8D
:1018F00079839A8386DF7981872F83DF812F81DF48
:101900009A81892F0F900F90DF91CF911F9179CFFE
:101910000F931F9340912301509124016091250161
:10192000709126018A019B01082BC901B8011F9102
:101930000F91D6CF80E865DF7FDF9AB5992321F03C
:1019400081FFF8CF81E0089580E008958BE659DFAC
:101950008FE0DEDF80E255DF6FDF9AB5992321F05B
:1019600087FDF8CF81E0089580E00895DF92EF923F
:10197000FF920F931F93CF93DF93CDB7DEB72897D6
:101980000FB6F894DEBF0FBECDBF73DF81EC39DF39
:1019900089E537DF82EC35DF82E033DF80EE31DF4F
:1019A0008E01075F1F4FCE0101967C0188E0D82E83
:1019B000E7E4F1E0D7018D2D01900D928A95E1F7D2
:1019C000F80182918F011DDF0E151F0589F72896FA
:1019D0000FB6F894DEBF0FBECDBFDF91CF911F9140
:1019E0000F91FF90EF90DF90A5CFA4DF81EC09DF8E
:1019F00080E007DF81E805DF1FDF8111F7CFD9CE57
:101A00000F931F93CF93DF93182FEB011882198246
:101A10001A821B829BDF882341F18CE4F2DE8AE08C
:101A200077DF812FEEDE8CE4ECDE8BE071DF81E08E
:101A3000E8DE80DF8823C9F089DF8823B1F08BE6F8
:101A4000E0DE84E065DF80EADCDE82E0DADE84E28C
:101A5000D8DE8E010D5F1F4FEFDE8993C017D107CF
:101A6000D9F79AB581E0911101C080E0DF91CF9163
:101A70001F910F910895CF92DF92EF92FF920F93F3
:101A80001F93CF93DF936B017C01EA0189015EDF35
:101A9000882361F18CE4B5DE8AE03ADF83E4B1DECD
:101AA00002301105B8F08BE6ACDEC701B60118DFD5
:101AB00080EAA7DE8FEF800FA4DE84E2A2DE0C0FA7
:101AC0001D1FC017D10769F08AB5882351F0B4DE15
:101AD0008993F7CF8CE095DEC701B60101DFACDE5C
:101AE00088839AB581E0911101C080E0DF91CF91A8
:101AF0001F910F91FF90EF90DF90CF900895FF928C
:101B00000F931F93CF93DF9300D000D0CDB7DEB7F4
:101B1000182FF22E49835A836B837C8317DF082F9B
:101B2000882389F08CE46DDE8AE0F2DE812F69DEA5
:101B30008CE467DE49815A816B817C81CB01BA01DB
:101B4000CFDE8F2D5EDE802F0F900F900F900F90C5
:101B5000DF91CF911F910F91FF9008954F925F9267
:101B60006F927F928F929F92AF92BF92CF92DF92AD
:101B7000EF92FF920F931F93CF93DF93C82FD62F2F
:101B8000842E922E2701380120FF11C0DFDE811143
:101B900002C0C0E043C08CE434DE8AE0B9DE8D2FA1
:101BA00030DE8CE42EDE8BE0B3DE81E02ADEA11491
:101BB000B10421F491FC20C0C1E030C0C7DE88230D
:101BC00041F38CE41EDE8AE0A3DE8C2F1ADE8BE666
:101BD00018DEC301B20184DE80EA13DE8FEF8A0DC6
:101BE00010DE84E60EDEE601AC0CBD1CCA15DB057A
:101BF00009F3899106DEFACFA9DEC82F882309F4FC
:101C0000C8CF8CE4FEDD8AE083DE882DFADD8CE42B
:101C1000F8DDC301B20164DE80E0F3DD8C2FDF91DB
:101C2000CF911F910F91FF90EF90DF90CF90BF90D9
:101C3000AF909F908F907F906F905F904F9008959E
:101C40001F93CF93DF9300D000D0CDB7DEB7182F0E
:101C500049835A836B837C8379DE49815A816B8106
:101C60007C81882309F467C08CE4103429F4C9DD31
:101C70008AE04EDE80E440C049835A836B837C83D4
:101C8000103309F040C0BDDD8AE042DE86E3B9DDF5
:101C90008CE4B7DD8BE03CDE81E0B3DD57DE8823EA
:101CA00009F449C08CE4ADDD8AE032DE83E3A9DDCE
:101CB0008BE6A7DD49815A816B817C81CB01BA011A
:101CC0000FDE80EA9EDD8091210181509ADD84E65D
:101CD00098DD10E0812F90E02091210130912201C8
:101CE0008217930720F480E08CDD1F5FF3CF8CE434
:101CF00088DD8AE00DDE80E384DD8CE482DD8BE02C
:101D000007DE81E00FC07DDD8AE002DE812F79DD14
:101D10008CE477DD49815A816B817C81CB01BA01EA
:101D2000DFDD80E06EDD0F900F900F900F90DF9160
:101D3000CF911F91FFCD80E00F900F900F900F90EB
:101D4000DF91CF911F910895982F9F7090698073B4
:101D5000880F892B56CD1F93CF93DF931F92CDB75A
:101D6000DEB7182F88E699834CDD812F4ADD89E69E
:101D700048DD9981892F0F90DF91CF911F9141CD3F
:101D800080E83FDD59DD9AB5992321F081FFF8CF36
:101D900081E0089580E0089590911F01892F8F7050
:101DA00080619073990F892B2CDD46DD9AB59923BC
:101DB00021F087FDF1CF81E0089580E00895DF9262
:101DC000EF92FF920F931F93CF93DF93CDB7DEB7C0
:101DD00028970FB6F894DEBF0FBECDBF65DD82EC4D
:101DE00010DD82E00EDD80EE0CDD8E01075F1F4FFF
:101DF000CE0101967C0188E0D82EEFE4F1E0D70116
:101E00008D2D01900D928A95E1F7F80182918F0155
:101E1000F8DC0E151F0589F728960FB6F894DEBF7B
:101E20000FBECDBFDF91CF911F910F91FF90EF902B
:101E3000DF90A6CFA5DF80ECE4DC80E0E2DC80E888
:101E4000E0DCFADC8111F7CFC6CCEF92FF920F9362
:101E50001F93CF93DF93EC017B018A019DDF8823E1
:101E6000D1F08091200170DF80E0CBDCCE0173DF08
:101E7000E7010E0D1F1DC017D10741F08AB5882359
:101E800029F084E2BEDCD8DC8993F5CF9AB581E0F5
:101E9000911101C080E0DF91CF911F910F91FF90D0
:101EA000EF900895CF92DF92FF920F931F93CF93FD
:101EB000DF936C018B01EA016FDFF82E811102C004
:101EC000F12C23C0C0FF06C0F801EC0FFD1F8FEFFF
:101ED000808321968091200137DF8DE192DCC6015D
:101EE0003ADF209791F058DF882351F384E689DCAC
:101EF000F801808186DC84E684DC0E5F1F4FF801E8
:101F0000319780817EDC2297ECCF8F2DDF91CF91AE
:101F10001F910F91FF90DF90CF9008951F93CF9363
:101F2000DF93182FEB0138DF882381F080912001A7
:101F30000BDF812F66DCCE0181600DDF80E661DC86
:101F400080E05FDCDF91CF911F9126CF80E0DF91B1
:101F5000CF911F910895249A882311F02C9A089507
:101F60002C980895E8EEF0E080818B77808382E002
:101F70008093E900ACEEB0E08C9181608C93A1EF8E
:101F8000B0E084E38C938EEE8C9380818E77808397
:101F90000895CF93DF93C8EED0E088818B77888354
:101FA00082E08093E900ECEEF0E080818160808344
:101FB0003ED881E0D0DFE1EFF0E080E38083108263
:101FC00088818E778883DF91CF910895CF93DF93B7
:101FD000C8EED0E088818B77888382E08093E90027
:101FE000ECEEF0E08081816080830E94EB0780E06E
:101FF0006ED8E1EFF0E081E38083108288818E77F4
:102000008883DF91CF9108951F93CF93DF939091B1
:10201000F1008091F100C92FD82F1091F10080912B
:10202000E8008B778093E80082E08093E90080915C
:10203000EC0081608093EC0080E08DDF209799F0C8
:102040001EBC0DB407FEFDCF8EB58093F1008091CC
:10205000E80085FD06C08091E8008E778093E80057
:10206000A1D42197EBCF8091F200882339F09AD444
:102070008091E8008E778093E80094D4112329F0B2
:1020800081E0DF91CF911F9166CFDF91CF911F91BA
:102090000895CF92DF92EF92FF920F931F93CF9309
:1020A000DF93CDB7DEB7C058D1090FB6F894DEBFC5
:1020B0000FBECDBF9091F1008091F100E92EF82E76
:1020C0000091F10080E047DFCE0101966C01E11440
:1020D000F10401F190E8E916F10410F41E2D01C09D
:1020E00010E8612F70E040E050E0C60136D3F60101
:1020F00081918EBD0DB407FEFDCF8EB58E2F8C194C
:102100008117B0F31150212F30E020953095E20E69
:10211000F31EDDCF8091E8008B778093E8000023E9
:1021200011F081E018DFC058DF4F0FB6F894DEBF22
:102130000FBECDBFDF91CF911F910F91FF90EF9018
:10214000DF90CF9008952B982A982398229808958D
:10215000239A8AE18A95F1F700C00895229A8AE1CC
:102160008A95F1F700C023988AE18A95F1F700C0BB
:1021700022988AE18A95F1F700C0239A8AE18A952C
:10218000F1F700C00895229A239A8AE18A95F1F71F
:1021900000C022988AE18A95F1F700C023988AE16D
:1021A0008A95F1F700C0089598E0229A87FF02C04F
:1021B000239801C0239A2AE12A95F1F700C02298BA
:1021C0002AE12A95F1F700C0880F915071F7229A01
:1021D00023988AE18A95F1F700C022982AE12A958E
:1021E000F1F700C083B183FB882780F991E089274C
:1021F0000895282F229A23983AE13A95F1F700C0E2
:1022000022988AE18A95F1F700C093B193FB882761
:1022100080F997E0229A3AE13A95F1F700C02298C6
:102220003AE13A95F1F700C0880F1B99816091500F
:1022300089F7229A211102C0239A01C023989AE1BA
:102240009A95F1F700C022983AE13A95F1F700C06B
:102250000895613011F4816001C08E7FA5CFEF92A7
:10226000FF920F931F93CF93DF939091F100809192
:10227000F100C92FD82F1091F1000091F100F090DA
:10228000F100E090F1009091E8009B779093E800D6
:1022900082E08093E9009091EC0091609093EC00D3
:1022A00052DF56DF60E0812FD4DF023018F08E2D30
:1022B0007BDF02C0002311F08F2D76DF4FDF61E05E
:1022C000812FC7DF2097A9F0C130D10511F481E03B
:1022D00001C080E08EDF8093F1008091E80085FDF1
:1022E00006C08091E8008E778093E8005BD3219749
:1022F000E9CF49DF8091F200882369F053D38091C0
:10230000E8008E778093E800DF91CF911F910F91C5
:10231000FF90EF9047C3DF91CF911F910F91FF90F6
:10232000EF900895AF92BF92CF92DF92EF92FF921B
:102330001F93CF93DF93CDB7DEB761970FB6F894B5
:10234000DEBF0FBECDBF9091F1008091F100E92E6C
:10235000F82E8091F1001091F100D090F100C09022
:10236000F100898BF0DEF4DE60E0898972DF1230E3
:1023700018F08C2D19DF02C0112311F08D2D14DF00
:10238000CE0101966C01E114F104F1F080E1E81650
:10239000F10410F41E2D01C010E1612F70E040E047
:1023A00050E0C601DAD15601F50181915F01FCDEF2
:1023B0008A2D8C198117C0F31150212F30E0209500
:1023C0003095E20EF31EDFCFDEDE8091E8008B77E2
:1023D0008093E80061960FB6F894DEBF0FBECDBFC4
:1023E000DF91CF911F91FF90EF90DF90CF90BF9042
:1023F000AF900895EF92FF920F931F93CF93DF93C7
:102400001F92CDB7DEB701EF10E0F801808198EEA2
:10241000E92EF12CF70190819B77908392E09093C5
:10242000E900ECEEF0E090819160908389838BDE8F
:102430008FDE60E089810DDFF8018083A4DEF70183
:1024400080818E7780830F90DF91CF911F910F91C4
:10245000FF90EF90089584B1897F84B985B1867F1C
:1024600085B91CBC1DBC84B1866084B985B1896006
:1024700085B980E070DD29988AE68A95F1F700C079
:1024800081E069DD2A9A8AE68A95F1F700C0299AE7
:102490008AE68A95F1F700C029988AE68A95F1F7CD
:1024A00000C008956623C9F02FEF260FAC0102C0CB
:1024B000569547952A95E2F740FF02C02A9A01C037
:1024C0002A98299A5AE65A95F1F700C029982AE6DF
:1024D0002A95F1F700C06150E5CF089598E080E0BB
:1024E000880F299A2AE62A95F1F700C029982AE64A
:1024F0002A95F1F700C01B998F5F915089F70895D5
:1025000080E029DD29988AE68A95F1F700C00895D0
:1025100081E021DD85E38A95F1F700008AE68A955E
:10252000F1F700C080E01B9B03C015DD80E008953B
:1025300012DD81E008950F931F93CF93DF9300D0B6
:102540001F92CDB7DEB79091F1008091F100092F75
:10255000182F8091F1009091F1006091F10020918D
:10256000E8002B772093E80022E02093E9002091F7
:10257000EC0021602093EC006A8389839B836BDFEE
:102580006A8189819B818EDF0115110591F410927A
:10259000F1000FC0A3DF8093F1008091E80085FD7A
:1025A00006C08091E8008E778093E800FBD101504F
:1025B00011090115110571F78091F200882339F096
:1025C000F1D18091E8008E778093E800EBD10F90F5
:1025D0000F900F90DF91CF911F910F9191CFBF92EC
:1025E000CF92DF92EF92FF920F931F93CF93DF93DF
:1025F00000D01F92CDB7DEB79091F1008091F1002D
:10260000092F182F8091F1009091F1006091F10055
:102610006A8389839B831FDF6A8189819B8142DF73
:102620000115110529F10830110510F4B02E02C072
:1026300098E0B92E6B2D70E040E050E085E691E027
:102640008CD085E6C82E81E0D82E7601F7018191E5
:102650007F0168E090E026DF8E2D8C198B15B0F39A
:10266000BA948B2D90E080959095080F191FD8CFC4
:102670008091E8008B778093E8000F900F900F9087
:10268000DF91CF911F910F91FF90EF90DF90CF904E
:10269000BF9036CFCF93DF93C8EED0E088818B77A1
:1026A000888382E08093E900ECEEF0E08081816035
:1026B00080832EDF8093F10075D188818E778883A7
:1026C000DF91CF910895CF92DF92EF92FF920F9317
:1026D0001F93CF93DF93EC018B017A0163D18111BA
:1026E00033C0E114F10439F0F70180819181081BB6
:1026F000190BC80FD91FC12CD12C0115110519F1C7
:102700008091E80085FD16C08091E8008E77809367
:10271000E8005ED3E114F10449F0F7018081918172
:10272000C80ED91ED182C08285E00EC03BD188235D
:1027300021F30AC089918093F10001501109FFEF44
:10274000CF1ADF0ADACF80E0DF91CF911F910F918E
:10275000FF90EF90DF90CF900895CF92DF92EF92AD
:10276000FF920F931F93CF93DF93EC018B017A01BC
:1027700019D1811133C0E114F10439F0F7018081DE
:102780009181081B190BC80FD91FC12CD12C011521
:10279000110519F18091E80085FD16C08091E800CF
:1027A0008B778093E80014D3E114F10449F0F7012A
:1027B00080819181C80ED91ED182C08285E00EC071
:1027C000F1D0882321F30AC08091F1008993015050
:1027D0001109FFEFCF1ADF0ADACF80E0DF91CF9146
:1027E0001F910F91FF90EF90DF90CF900895CF92BF
:1027F000DF92EF92FF920F931F93CF93DF93EC0141
:102800008B017A01CFD0811139C098012150310953
:10281000C20FD31FE114F10439F0F70180819181D7
:10282000081B190BC81BD90BC12CD12C0115110584
:1028300021F18091E80085FD16C08091E8008B773A
:102840008093E800C5D2E114F10449F0F7018081DA
:102850009181C80ED91ED182C08285E00FC0A2D05E
:10286000882321F30BC08091F100888321970150C8
:102870001109FFEFCF1ADF0AD9CF80E0DF91CF91A6
:102880001F910F91FF90EF90DF90CF9008952091CE
:102890007B0130917C012617370748F061157105DF
:1028A00039F42091E8002E772093E80001C0B901A7
:1028B000FC0120E06115710561F18EB38823D9F127
:1028C0008530D9F18091E80083FD39C08091E8001E
:1028D00082FD2BC08091E80080FFECCF8091F20058
:1028E00090E06115710559F08031910540F4249113
:1028F0002093F1003196615071090196F2CF21E0E9
:10290000409709F020E08091E8008E778093E800FE
:10291000D1CF2111D2CF09C08EB3882361F0853089
:1029200061F08091E80083FD0AC08091E80082FF99
:10293000F3CF80E0089582E0089583E0089581E078
:1029400008958F708093E900EBEEF0E08081816064
:102950008083EDEEF0E010826093EC004083809184
:10296000EE00881F8827881F08958091750187FFD2
:102970000FC08091E80082FD04C08EB38111F9CFB1
:1029800010C08091E8008B770AC08EB3882349F08D
:102990008091E80080FFF9CF8091E8008E778093E6
:1029A000E80008952091E4003091E50095E640911B
:1029B000EC00842F817040FF21C08091E80080FDF1
:1029C0001BC08EB3882391F0853091F08091EB008D
:1029D00085FD10C04091E4005091E5004217530777
:1029E00031F39A01915019F784E0089582E0089537
:1029F00083E0089581E0089580E008954091E80023
:102A000042FFDFCF08953CD03ED08091D8008F7731
:102A10008093D8008091D80080688093D8008091FE
:102A2000D8008F7D8093D80084E089BD86E089BD81
:102A300009B400FEFDCF1EBA1092730142E160E0BE
:102A400080E07FDF8091E1008E7F8093E1008091C4
:102A5000E20081608093E2008091E20088608093D0
:102A6000E2008091E0008E7F8093E0000895E3E62D
:102A7000F0E080818E7F808381E080937401C3CFFA
:102A80001092E20008951092E10008951F920F92B3
:102A90000FB60F9211242F933F934F935F936F9331
:102AA0007F938F939F93AF93BF93EF93FF93809107
:102AB000E10080FF17C08091E20080FF13C0809189
:102AC000E2008E7F8093E2008091E200806180933B
:102AD000E2008091D80080628093D80019BC1EBAB1
:102AE0000E945C018091E10084FF2FC08091E20090
:102AF00084FF2BC084E089BD86E089BD09B400FE57
:102B0000FDCF8091D8008F7D8093D8008091E10027
:102B10008F7E8093E1008091E2008F7E8093E200BF
:102B20008091E20081608093E200809173018823AC
:102B300011F084E007C08091E30087FD02C081E0CE
:102B400001C083E08EBB0E945A018091E10083FFA7
:102B500021C08091E20083FF1DC08091E100877F4A
:102B60008093E10082E08EBB109273018091E100BE
:102B70008E7F8093E1008091E2008E7F8093E2005F
:102B80008091E20080618093E20042E160E080E0B9
:102B9000D8DE1DD1FF91EF91BF91AF919F918F91A1
:102BA0007F916F915F914F913F912F910F900FBE49
:102BB0000F901F9018951F93CF93DF9300D0CDB740
:102BC000DEB7E5E7F1E088E08E0F9091F100919398
:102BD0008E13FBCFFCD08091E80083FFE4C080918E
:102BE000750190917601953009F46FC030F4913001
:102BF00071F168F0933059F1D6C0983009F4A8C04B
:102C0000993009F4B4C0963009F0CDC07FC0803847
:102C100099F0823809F0C7C0809179018F708530B2
:102C200008F0C1C08093E9008091EB0085FB882704
:102C300080F91092E90001C080E09091E800977F50
:102C40009093E8008093F1001092F1008CC0282F3F
:102C50002D7F09F0A8C0823009F0A5C080917701CE
:102C600081112AC0809179018F702FEF280F2430B5
:102C700008F099C08093E9002091EB0020FF1CC070
:102C8000933021F48091EB00806214C09091EB00AE
:102C900090619093EB0021E030E0A90102C0440F65
:102CA000551F8A95E2F74093EA001092EA0080915E
:102CB000EB0088608093EB001092E9008091E800BF
:102CC000877F8093E80051DE6EC081116CC0109147
:102CD00077011F778091E3008078812B8093E30058
:102CE0008091E800877F8093E8003FDE8091E800D4
:102CF00080FFFCCF8091E30080688093E300111196
:102D000002C082E001C083E08EBB4DC0805882309B
:102D100008F049C06091790170917A01AE014F5F6E
:102D20005F4F80917701909178010E948601BC01EC
:102D3000892BC9F19091E800977F9093E8008981F1
:102D40009A81A5DD8091E8008B778093E8002BC005
:102D5000803849F58091E800877F8093E800809172
:102D600073018093F1008091E8008E77AACF8111E2
:102D70001AC0909177019230B0F48091E800877F7B
:102D80008093E80090937301F0DD809173018111CD
:102D900006C08091E30087FD02C081E001C084E0AD
:102DA0008EBB0E945E018091E80083FF0AC0809183
:102DB000E800877F8093E8008091EB008062809339
:102DC000EB000F900F90DF91CF911F910895089520
:102DD000CF938EB3882399F0C091E900CF70909182
:102DE000EC00892F817090FD80E8C82B1092E900DB
:102DF0008091E80083FDDFDECF70C093E900CF91C2
:102E00000895F999FECF92BD81BDF89A992780B5B2
:102E10000895262FF999FECF92BD81BDF89A0197AA
:102E200000B4021639F01FBA20BD0FB6F894FA9A12
:0A2E3000F99A0FBE0895F894FFCF41
:102E3A008001008101009001009101019201189422
:102E4A0001219803069E0301A10100A40300013297
:102E5A00332000C0010001010101000001262636CD
:102E6A00262626232333232323242C354C081A40D1
:102E7A00206830222A32181289AB45CDD888FF1231
:102E8A0089AB45CDD888FF4156524953505F4D4BC7
:022E9A00320004
:00000001FF
