:2000000042C0DFC05BC05AC059C058C057C056C055C054C053C052C051C050C04FC04EC020
:200020004DC04CC04BC04AC049C048C047C046C045C044C0090212000101008019090400A6
:2000400000000000000012011001FF000008C016DC050401010200010E03550053004200BA
:200060006100730070001C037700770077002E00660069007300630068006C002E0064007F
:2000800065000403090411241FBECFEFD4E0DEBFCDBF11E0A0E0B1E0EEE8F5E102C0059035
:2000A0000D92A430B107D9F721E0A4E0B1E001C01D92A035B207E1F7CFD867CAA1CF259A52
:2000C00023982B9A50E217D05A95E9F70895AC0188E605D0842F03D089E601D0852F0FD0D2
:2000E00028E030E0382780FB869506D02A95D1F730FB02D000D0689423982B9A16F02B9884
:20010000239AE0912401F09125013197F0F72D9AE3B1E3FBE0912401F09125013197F0F711
:200120002D98089520ECE7DF46F42A95E1F780E02AE1E5DF2A95E9F7DECF28E030E0DBDF6D
:20014000869587F938272A95D1F7D5DF27F9322772F3D1DFD0CFDB01742FB9DF84E2BFDF22
:20016000E1DF8D937A95D1F70895DB01742FAFDF83EFB5DF8DE1B3DF84E6B1DF8D91AFDF72
:2001800082E7ADDFCFDF8078D9F77A9589F70895A82FB92F80E090E041E050EA609530E0D9
:2001A00009C02D9182279795879510F084279527305EC8F36F5FA8F30895EADF8D939D93F8
:2001C0000895CF93CFB7CF93C395189BE9F7189B09C0189B07C0189B05C0189B03C0189BB6
:2001E00001C0A1C0DF93C0913301DD27C65CDE4F189B02C0DF91EBCF2F930F931F9303B12A
:200200002FEF00FB20F94F933F9313B14FEF012700FB21F93BE031C04E7F012F13B121606B
:2002200028C0102F4D7F2260000003B129C04B7F2460012F000013B12BC013B1477F28606D
:200240002AC04F7E03B120612CC04F7D13B120622FC04F7B03B1206432C0422703B14993D8
:200260004FEF0000102710FB20F913B11370C9F1297F91F2012700FB21F903B1237F89F2AB
:20028000315058F1102710FB22F913B1277E79F2012700FB23F92F7C81F203B1102710FB10
:2002A00024F92F7971F200C013B1012700FB25F92F7359F200C003B1102710FB26F922303D
:2002C00040F200C013B1012700FB27F9243028F64F77206813B10000F9CF11E01CBB0027EA
:2002E00017C03B503195C31BD04011E01CBB0881033CE9F00B34D9F0209131011981110FDA
:200300001213EDCF093641F10D3211F0013E39F7009338013F914F911F910F912F91DF91E0
:20032000CCB3C0FD51CFCF91CFBFCF91189520913801222379F310913601112311F5343055
:2003400012F13093360120933201109133013BE0311B3093330117C00091360101308CF437
:200360000AE53091030134FD10C000930301C6E2D1E00FC02795A8F45150A9F4220F000042
:20038000F9CF4AE503C042ED01C0432FC4E1D0E032E014B11360289A14B905B120E413E066
:2003A0005F93012756E005B9279520F4515021F4220FF9CF012756E000003B5A05B9D0F23D
:2003C000279528F4515029F4220F0000F9CF012756E0279505B920F4515021F4220FF9CFF3
:2003E000012756E02991332305B921F60C7F10913701110FC651D04005B911F0109331017B
:2004000011E01CBB016014B11C7F402F4C7F5F9100C000C005B914B945B97CCF90E09817B6
:2004200039F036B526B5231B2C33E0F39F5FF7CF08952C982B98249823980895249A80E142
:200440008A95F1F700C00895239A80E18A95F1F700C0249880E18A95F1F700C0239880E153
:200460008A95F1F700C0249A80E18A95F1F700C00895239A249A80E18A95F1F700C02398D4
:2004800080E18A95F1F700C0249880E18A95F1F700C0089598E0239A87FF02C0249801C0B9
:2004A000249A20E12A95F1F700C0239820E12A95F1F700C0880F915071F7239A249880E139
:2004C0008A95F1F700C0239820E12A95F1F700C083B18295817091E089270895282F239A24
:2004E000249830E13A95F1F700C0239880E18A95F1F700C093B194FB882780F997E0239AA6
:2005000030E13A95F1F700C0239830E13A95F1F700C0880F1C998160915089F7239A211193
:2005200002C0249A01C0249890E19A95F1F700C0239830E13A95F1F700C00895613011F400
:20054000816001C08E7FA6CF8EBD0DB407FEFDCF8EB50895DC01CB0121E1B695A79597955C
:2005600087952A95D1F7209122012817D9F080932201E0911E01F0911F018DE40995E09115
:200580001E01F0911F0180E00995E0911E01F0911F01809122010995E0911E01F0911F0169
:2005A00080E009940895809121018CBD809120018DBD0895882319F0883098F101C08AE0EC
:2005C00024EA32E030931F0120931E011092200191E0909323018B30A9F028F48830E9F0CA
:2005E0008930C9F011C08D3049F050F08E3061F480E58093210190932001089580E50EC0C1
:200600009093200181E50AC082E58093210181E080932001089582E501C083E580932101D3
:20062000089529E333E030931F0120931E01843081F030F4823079F0833079F480E30EC094
:20064000863061F020F0873041F483E007C08CE005C088E103C080E601C080EC8093230146
:20066000089526B59091230186B5821B8917E0F308951F93CF93DF93182FD8E0C0E017FF9A
:2006800002C02B9A01C02B98110FCC0F1C99CF5F2D9AE7DF2D98E5DFD15089F78C2FDF918F
:2006A000CF911F91089584B18C6284B92A982D98D8DF2A9AD6DF2A9880911E0190911F0143
:2006C000845A924009F46FDF10922201089584B18C6284B980911E0190911F01845A92403C
:2006E00009F461DF2A9A089584B1837D84B985B1837D85B91CBC0895CF93DF93C1E2C15079
:2007000051F1E0911E01F0911F018CEA0995E0911E01F0911F0183E50995E0911E01F0910A
:200720001F0180E00995D82FE0911E01F0911F0180E00995D33589F01CBC93DF2A9A91DF66
:200740002A988FDF80911E0190911F01845A9240B1F629DFD4CF81E001C080E0DF91CF91A4
:200760000895CF92DF92EF92FF926B017C01F2DE8C2D8170880F880F880FE0911E01F091BF
:200780001F0180620995D701C60129E0B695A795979587952A95D1F7E0911E01F0911F018A
:2007A0000995D701C601B695A79597958795E0911E01F0911F010995E0911E01F0911F012D
:2007C00080E0FF90EF90DF90CF900994CF92DF92EF92FF92CF93DF936B017C01C42FD22FAB
:2007E000B9DE8C2D8170880F880F880FE0911E01F0911F0180640995D701C60129E0B6954D
:20080000A795979587952A95D1F7E0911E01F0911F010995D701C601B695A7959795879590
:20082000E0911E01F0911F010995E0911E01F0911F018C2F0995DD2321F0CF3721F48FE0C4
:20084000EDDD80E00FC0D6B5CEE1C701B60189DF8F37B9F786B58D1B8D33B8F3D6B5C1501E
:20086000A1F781E0DF91CF91FF90EF90DF90CF900895CF92DF92EF92FF92CF93DF936B0112
:200880007C01C42F67DEE0911E01F0911F018CE40995D701C60129E0B695A79597958795ED
:2008A0002A95D1F7E0911E01F0911F010995D701C601B695A79597958795E0911E01F09163
:2008C0001F010995E0911E01F0911F0180E00995CF3F19F48FE0A2DD10C0D6B5CEE1C70150
:2008E000B6013FDF8F3F49F486B58D1B8D33B8F3D6B5C150A1F781E001C080E0DF91CF9144
:20090000FF90EF90DF90CF900895CF93DF93EC01E0911E01F0911F0180EA0995E0911E01D4
:20092000F0911F018D2F0995E0911E01F0911F018C2F0995E0911E01F0911F0180E0DF9131
:20094000CF9109941F93CF93DF93D82F192FC62FE0911E01F0911F0180EC0995E0911E0105
:20096000F0911F01812F0995E0911E01F0911F018D2F0995E0911E01F0911F018C2F099573
:200980008EE14CDD80E0DF91CF911F910895CF93DF93EC018981813061F4329902C085E07F
:2009A00002C08091130106DE1092120141987BDEDEC1823351F4329902C085E002C0809127
:2009C0001301F8DD419883DED2C1833359F42A989A81909300012E813F8130930D0120936A
:2009E0000C01B2C1843361F42A988A81809300018E819F8190930D0180930C0182E3A4C140
:200A0000863419F4419815DDB2C1893441F416DD60E08A8193DD809315012BDD5EC1873426
:200A2000D1F40CDD60E08A8189DD8B81823011F48D8130DD8B81882311F08C812BDD04DDCB
:200A400061E08A817BDD8E819F8190930D0180930C0186E379C18834B1F4F0DC60E08A8157
:200A60006DDD8B81823011F48D8114DD8B81882311F08C810FDD8E819F8190930D01809346
:200A80000C0185E361C18D35A1F48A819B8190930601809305018C81809304018D818093B8
:200AA00007018E819F8190930D0180930C018AE34BC18C3581F4E0D36C818A819B81E6D37F
:200AC0008E819F8190930D0180930C01892B09F40CD489E339C18E3529F40AD4813009F037
:200AE000CCC0F9C0823011F4FFDDF0C08330F9F4E0911E01F0911F018A81099580931501CB
:200B0000E0911E01F0911F018B81099580931601E0911E01F0911F018C81099580931701C9
:200B2000E0911E01F0911F018D8109951BC18430D1F48091120181110EC08A819B81092EA1
:200B4000000CAA0BBB0B80930E0190930F01A0931001B09311018E819F8190930D018093AD
:200B60000C0182E0F1C08730D1F48091120181110EC08A819B81092E000CAA0BBB0B80935D
:200B80000E0190930F01A0931001B09311018E819F8190930D0180930C0183E0D5C085304D
:200BA00011F4AADD98C0863079F58091120181110EC08A819B81092E000CAA0BBB0B8093B1
:200BC0000E0190930F01A0931001B09311013C812D81822F8F7080930901822F807F40E131
:200BE000849FC0011124830F911D90930B0180930A0120FD809308018E819F8190930D01B6
:200C000080930C0181E0A0C0883001F58091120181110EC08A819B81092E000CAA0BBB0BDC
:200C200080930E0190930F01A0931001B093110110920B0110920A01109209018E819F8190
:200C400090930D0180930C0184E07EC0893081F481E0809312018A819B81AC81BD81809347
:200C60000E0190930F01A0931001B09311017FC08A3031F48A8180931301109215012DC0A4
:200C80008B3081F48A819B8190932501809324012A9A229A83E0C2DB2A98419880E1BEDB67
:200CA0000EDA65C08C30A1F480EC19DA80E017DA8AE0B4DB2A9A85E0B1DB2A9885E0AEDBC8
:200CC00084B1837D84B985B1837D85B9419A4FC08D3031F427DA8093150181E090E049C05E
:200CE0008E3019F48A81FBD942C08F30B1F48A819B81092E000CAA0BBB0B80930E019093BA
:200D00000F01A0931001B09311018E819F8190930D0180930C0185E017C08031D1F48A81ED
:200D20009B81092E000CAA0BBB0B80930E0190930F01A0931001B09311018E819F81909399
:200D40000D0180930C0186E0809314018FEF9FEF10C08F3761F481E080931501109216019D
:200D6000109217018093180184E090E002C080E090E025E131E03093350120933401DF91BF
:200D8000CF910895EF92FF920F931F93CF93C62F209114013EEF320F323008F48DC0253065
:200DA00009F48FC0233339F0293309F45EC0263309F0D6C031C020910C0130910D01462F16
:200DC00050E02417350708F4C22FF82E8C01802F8F198C1798F4E0911E01F0911F0180E0B5
:200DE0000995F80181938F0180910C0190910D01019790930D0180930C01E9CF80910C01AC
:200E000090910D01892B09F0ADC080910001882309F4A3C02A9AA1C020910C0130910D01BA
:200E2000462F50E02417350708F4C22FF82E8C0180910C0190910D01202F2F192C1780F45B
:200E4000019790930D0180930C01892B11F481E001C080E043DBF80180830F5F1F4FE8CFC1
:200E6000892B09F07FC005DB78C020910C0130910D01462F50E02417350708F4C22FF82EB2
:200E80008C01802F8F198C1770F41ED2F80181938F0180910C0190910D01019790930D01C4
:200EA00080930C01EECF80910C0190910D01892B09F058C01AD251C08C017C01E60EF11C3B
:200EC00040C0462FBC0180910E0190910F0143D980910E0190910F01A0911001B09111018D
:200EE0008C0F911DA11DB11D80930E0190930F01A0931001B093110135C080911401823062
:200F000021F560910E0170910F01809110019091110127DCF801808380910E0190910F0105
:200F2000A0911001B09111010196A11DB11D80930E0190930F01A0931001B09311010F5F9D
:200F40001F4F0E151F05C9F606C080910E0190910F01DBDCDFCFC83028F41092140102C014
:200F60008FEF01C08C2FCF911F910F91FF90EF900895EF92FF920F931F93CF93DF93EC01F5
:200F8000162F80911401813039F47E01CE01810F911D8C01D0E012C18430B9F3863009F459
:200FA000ACC0823379F18A3309F45DC0853309F04BC180910C0190910D01262F30E08217C7
:200FC000930708F4182F0C2FEC2EFD2E8E2D801B811770F4F70181917F015CDA80910C0184
:200FE00090910D01019790930D0180930C01EECF80910C0190910D01892B11F080E025C1D4
:2010000038DA2DC080910C0190910D01262F30E08217930708F4182F0C2FEC2EFD2E8E2D6E
:20102000801B811790F4E0911E01F0911F01D7018D917D01099580910C0190910D010197D1
:2010400090930D0180930C01EACF80910C0190910D01892B99F68091000181112A9A1092EC
:20106000140181E0F2C080910C0190910D01262F30E08217930708F4182FF12CF116C0F547
:20108000FBD0609104018091070190E02EEF260F02C0880F991F2A95E2F720910501309193
:2010A0000601822B932BF2D0FE01EF0DF11D808190E0982F8827218160E1822BE7D015D1DF
:2010C00017D18130E9F380910501909106010196909306018093050180910C0190910D0135
:2010E000029790930D0180930C01F394F394C6CF80910C0190910D0125C0462FBE018091EC
:201100000E0190910F0131D880910E0190910F01A0911001B0911101810F911DA11DB11DD6
:2011200080930E0190930F01A0931001B093110180910C0190910D01811B910990930D010D
:2011400080930C01892B09F48ACF58CF80911401813009F052C020910A0130910B016091E2
:201160000E0170910F018091100190911101232B49F521E0F701408129DB80910C01909171
:201180000D01019790930D0180930C01892BE9F180910E0190910F01A0911001B0911101E4
:2011A0000196A11DB11D80930E0190930F01A0931001B0931101FFEFEF1AFF0AE016F10631
:2011C00029F640C020E0D7014C9100DB809108018150809308018111D0CF60910E01709127
:2011E0000F018091100190911101F701408141DB80910A0180930801C0CFD7016C91809108
:201200000E0190910F019EDBB8CF109214018091090181FF15C08091080190E020910A0121
:2012200030910B018217930759F060910E0170910F018091100190911101F701408119DB52
:20124000D1E0A6CF8D2F01C08FEFDF91CF911F910F91FF90EF9008951BB815B880EF8AB950
:201260008FEF84B914B883E087B99EEF98B985BD85D178944BD0FECF2A982D98F2D92A9AC4
:201280002B9AEFD92D9AEDD92D98EBC90F931F93CF938C01C62FCC2399F08FEF8C0F980159
:2012A00002C0369527958A95E2F720FF02C02B9A01C02B982D9AD5D92D98D3D9C150EBCF12
:2012C000CF911F910F910895CF93DF93D8E0C0E0CC0F2D9AC6D92D98C4D91C99CF5FD150EE
:2012E000B9F78C2FDF91CF9108952A982D98B9C92A9A83E08A95F1F70000B3D91C9B03C0D9
:201300002A9880E008952A9881E00895CF93DF9360913601635067FDB7C080913301CCE0D3
:20132000D0E0C81BD109C65CDE4F809132018D3209F096C0683009F0A5C083EC8093260100
:201340008AE58093030110921D018881807641F0CE011DDB8F3F2FEF920709F46DC075C06C
:201360009A8110922F018981811107C0109230012FE231E082E090E05AC0853019F4909357
:20138000370142C08630D1F58B81813019F486E490E004C0823049F484E390E09093350110
:2013A0008093340182E190E025C0833009F5911109C082E890E0909335018093340184E032
:2013C00090E018C0913049F486E690E090933501809334018CE190E00DC0923049F488E534
:2013E00090E090933501809334018EE090E002C080E090E020E420931D0127C0883099F06F
:20140000893039F4909339012FE231E080E090E00EC031E020E08A3009F030E0832F922F82
:201420002FE231E004C029E331E081E090E0309335012093340109C0288127FF02C08E818E
:201440009F8120E820931D0106C02E813F812817390708F4C901909302018093010112C00C
:2014600080911D0187FF0EC0CE0183DD8F3F21F48EE18093030106C0882321F0109202012A
:2014800010920101109236018091030184FF62C080910101909102018F3F2FEF920709F45C
:2014A00059C0BC018930910510F068E070E0861B970B90930201809301019091260188E839
:2014C000892780932601C62F662309F44EC020911D0127FF07C087E291E054DCC82F893023
:2014E00080F521C0809134019091350126FF09C0A7E2B1E0FC0124912D9331966150D9F737
:2015000007C0DC01E7E2F1E02D9121936150E1F72FEF2C0F30E02F5F3F4F820F931F9093A7
:201520003501809334016C2F87E291E046D6CC5FCC3071F08FEF9FEF9093020180930101CD
:2015400007C08FEF9FEF9093020180930101CEE1C093030184E193B1937069F48150D9F7CD
:20156000109237011092310106C060E087E291E024D6C4E0DFCFDF91CF910895E9E6F0E085
:12158000808183608083E89A0895F894FFCF01FFFF5AA0
:00000001FF
